{
  "contractName": "NFTMarketplace",
  "abi": [
    {
      "inputs": [],
      "stateMutability": "nonpayable",
      "type": "constructor"
    },
    {
      "anonymous": false,
      "inputs": [
        {
          "indexed": true,
          "internalType": "address",
          "name": "account",
          "type": "address"
        },
        {
          "indexed": true,
          "internalType": "address",
          "name": "operator",
          "type": "address"
        },
        {
          "indexed": false,
          "internalType": "bool",
          "name": "approved",
          "type": "bool"
        }
      ],
      "name": "ApprovalForAll",
      "type": "event"
    },
    {
      "anonymous": false,
      "inputs": [
        {
          "indexed": false,
          "internalType": "uint256",
          "name": "tokenId",
          "type": "uint256"
        },
        {
          "indexed": false,
          "internalType": "string",
          "name": "name",
          "type": "string"
        },
        {
          "indexed": false,
          "internalType": "string",
          "name": "description",
          "type": "string"
        },
        {
          "indexed": false,
          "internalType": "uint256",
          "name": "price",
          "type": "uint256"
        }
      ],
      "name": "NFTCreated",
      "type": "event"
    },
    {
      "anonymous": false,
      "inputs": [
        {
          "indexed": false,
          "internalType": "uint256",
          "name": "tokenId",
          "type": "uint256"
        },
        {
          "indexed": false,
          "internalType": "uint256",
          "name": "price",
          "type": "uint256"
        }
      ],
      "name": "NFTListed",
      "type": "event"
    },
    {
      "anonymous": false,
      "inputs": [
        {
          "indexed": false,
          "internalType": "uint256",
          "name": "tokenId",
          "type": "uint256"
        },
        {
          "indexed": false,
          "internalType": "address",
          "name": "buyer",
          "type": "address"
        },
        {
          "indexed": false,
          "internalType": "uint256",
          "name": "price",
          "type": "uint256"
        }
      ],
      "name": "NFTPurchased",
      "type": "event"
    },
    {
      "anonymous": false,
      "inputs": [
        {
          "indexed": false,
          "internalType": "uint256",
          "name": "tokenId",
          "type": "uint256"
        }
      ],
      "name": "NFTUnlisted",
      "type": "event"
    },
    {
      "anonymous": false,
      "inputs": [
        {
          "indexed": true,
          "internalType": "address",
          "name": "previousOwner",
          "type": "address"
        },
        {
          "indexed": true,
          "internalType": "address",
          "name": "newOwner",
          "type": "address"
        }
      ],
      "name": "OwnershipTransferred",
      "type": "event"
    },
    {
      "anonymous": false,
      "inputs": [
        {
          "indexed": true,
          "internalType": "address",
          "name": "operator",
          "type": "address"
        },
        {
          "indexed": true,
          "internalType": "address",
          "name": "from",
          "type": "address"
        },
        {
          "indexed": true,
          "internalType": "address",
          "name": "to",
          "type": "address"
        },
        {
          "indexed": false,
          "internalType": "uint256[]",
          "name": "ids",
          "type": "uint256[]"
        },
        {
          "indexed": false,
          "internalType": "uint256[]",
          "name": "values",
          "type": "uint256[]"
        }
      ],
      "name": "TransferBatch",
      "type": "event"
    },
    {
      "anonymous": false,
      "inputs": [
        {
          "indexed": true,
          "internalType": "address",
          "name": "operator",
          "type": "address"
        },
        {
          "indexed": true,
          "internalType": "address",
          "name": "from",
          "type": "address"
        },
        {
          "indexed": true,
          "internalType": "address",
          "name": "to",
          "type": "address"
        },
        {
          "indexed": false,
          "internalType": "uint256",
          "name": "id",
          "type": "uint256"
        },
        {
          "indexed": false,
          "internalType": "uint256",
          "name": "value",
          "type": "uint256"
        }
      ],
      "name": "TransferSingle",
      "type": "event"
    },
    {
      "anonymous": false,
      "inputs": [
        {
          "indexed": false,
          "internalType": "string",
          "name": "value",
          "type": "string"
        },
        {
          "indexed": true,
          "internalType": "uint256",
          "name": "id",
          "type": "uint256"
        }
      ],
      "name": "URI",
      "type": "event"
    },
    {
      "inputs": [
        {
          "internalType": "address",
          "name": "account",
          "type": "address"
        },
        {
          "internalType": "uint256",
          "name": "id",
          "type": "uint256"
        }
      ],
      "name": "balanceOf",
      "outputs": [
        {
          "internalType": "uint256",
          "name": "",
          "type": "uint256"
        }
      ],
      "stateMutability": "view",
      "type": "function",
      "constant": true
    },
    {
      "inputs": [
        {
          "internalType": "address[]",
          "name": "accounts",
          "type": "address[]"
        },
        {
          "internalType": "uint256[]",
          "name": "ids",
          "type": "uint256[]"
        }
      ],
      "name": "balanceOfBatch",
      "outputs": [
        {
          "internalType": "uint256[]",
          "name": "",
          "type": "uint256[]"
        }
      ],
      "stateMutability": "view",
      "type": "function",
      "constant": true
    },
    {
      "inputs": [
        {
          "internalType": "address",
          "name": "account",
          "type": "address"
        },
        {
          "internalType": "address",
          "name": "operator",
          "type": "address"
        }
      ],
      "name": "isApprovedForAll",
      "outputs": [
        {
          "internalType": "bool",
          "name": "",
          "type": "bool"
        }
      ],
      "stateMutability": "view",
      "type": "function",
      "constant": true
    },
    {
      "inputs": [
        {
          "internalType": "uint256",
          "name": "",
          "type": "uint256"
        }
      ],
      "name": "nftCreators",
      "outputs": [
        {
          "internalType": "address",
          "name": "",
          "type": "address"
        }
      ],
      "stateMutability": "view",
      "type": "function",
      "constant": true
    },
    {
      "inputs": [
        {
          "internalType": "uint256",
          "name": "",
          "type": "uint256"
        }
      ],
      "name": "nfts",
      "outputs": [
        {
          "internalType": "string",
          "name": "name",
          "type": "string"
        },
        {
          "internalType": "string",
          "name": "description",
          "type": "string"
        },
        {
          "internalType": "uint256",
          "name": "price",
          "type": "uint256"
        },
        {
          "internalType": "bool",
          "name": "forSale",
          "type": "bool"
        }
      ],
      "stateMutability": "view",
      "type": "function",
      "constant": true
    },
    {
      "inputs": [],
      "name": "owner",
      "outputs": [
        {
          "internalType": "address",
          "name": "",
          "type": "address"
        }
      ],
      "stateMutability": "view",
      "type": "function",
      "constant": true
    },
    {
      "inputs": [],
      "name": "renounceOwnership",
      "outputs": [],
      "stateMutability": "nonpayable",
      "type": "function"
    },
    {
      "inputs": [
        {
          "internalType": "address",
          "name": "from",
          "type": "address"
        },
        {
          "internalType": "address",
          "name": "to",
          "type": "address"
        },
        {
          "internalType": "uint256[]",
          "name": "ids",
          "type": "uint256[]"
        },
        {
          "internalType": "uint256[]",
          "name": "amounts",
          "type": "uint256[]"
        },
        {
          "internalType": "bytes",
          "name": "data",
          "type": "bytes"
        }
      ],
      "name": "safeBatchTransferFrom",
      "outputs": [],
      "stateMutability": "nonpayable",
      "type": "function"
    },
    {
      "inputs": [
        {
          "internalType": "address",
          "name": "from",
          "type": "address"
        },
        {
          "internalType": "address",
          "name": "to",
          "type": "address"
        },
        {
          "internalType": "uint256",
          "name": "id",
          "type": "uint256"
        },
        {
          "internalType": "uint256",
          "name": "amount",
          "type": "uint256"
        },
        {
          "internalType": "bytes",
          "name": "data",
          "type": "bytes"
        }
      ],
      "name": "safeTransferFrom",
      "outputs": [],
      "stateMutability": "nonpayable",
      "type": "function"
    },
    {
      "inputs": [
        {
          "internalType": "address",
          "name": "operator",
          "type": "address"
        },
        {
          "internalType": "bool",
          "name": "approved",
          "type": "bool"
        }
      ],
      "name": "setApprovalForAll",
      "outputs": [],
      "stateMutability": "nonpayable",
      "type": "function"
    },
    {
      "inputs": [
        {
          "internalType": "bytes4",
          "name": "interfaceId",
          "type": "bytes4"
        }
      ],
      "name": "supportsInterface",
      "outputs": [
        {
          "internalType": "bool",
          "name": "",
          "type": "bool"
        }
      ],
      "stateMutability": "view",
      "type": "function",
      "constant": true
    },
    {
      "inputs": [
        {
          "internalType": "address",
          "name": "newOwner",
          "type": "address"
        }
      ],
      "name": "transferOwnership",
      "outputs": [],
      "stateMutability": "nonpayable",
      "type": "function"
    },
    {
      "inputs": [
        {
          "internalType": "uint256",
          "name": "",
          "type": "uint256"
        }
      ],
      "name": "uri",
      "outputs": [
        {
          "internalType": "string",
          "name": "",
          "type": "string"
        }
      ],
      "stateMutability": "view",
      "type": "function",
      "constant": true
    },
    {
      "inputs": [
        {
          "internalType": "string",
          "name": "name",
          "type": "string"
        },
        {
          "internalType": "string",
          "name": "description",
          "type": "string"
        },
        {
          "internalType": "string",
          "name": "tokenURI",
          "type": "string"
        }
      ],
      "name": "createNFT",
      "outputs": [],
      "stateMutability": "nonpayable",
      "type": "function"
    },
    {
      "inputs": [
        {
          "internalType": "address",
          "name": "to",
          "type": "address"
        },
        {
          "internalType": "uint256",
          "name": "tokenId",
          "type": "uint256"
        }
      ],
      "name": "transferNFT",
      "outputs": [],
      "stateMutability": "nonpayable",
      "type": "function"
    },
    {
      "inputs": [
        {
          "internalType": "uint256",
          "name": "tokenId",
          "type": "uint256"
        },
        {
          "internalType": "uint256",
          "name": "price",
          "type": "uint256"
        }
      ],
      "name": "listNFTForSale",
      "outputs": [],
      "stateMutability": "nonpayable",
      "type": "function"
    },
    {
      "inputs": [
        {
          "internalType": "uint256",
          "name": "tokenId",
          "type": "uint256"
        }
      ],
      "name": "removeNFTFromSale",
      "outputs": [],
      "stateMutability": "nonpayable",
      "type": "function"
    },
    {
      "inputs": [
        {
          "internalType": "uint256",
          "name": "tokenId",
          "type": "uint256"
        }
      ],
      "name": "purchaseNFT",
      "outputs": [],
      "stateMutability": "payable",
      "type": "function",
      "payable": true
    },
    {
      "inputs": [
        {
          "internalType": "uint256",
          "name": "tokenId",
          "type": "uint256"
        }
      ],
      "name": "printNFTsName",
      "outputs": [
        {
          "internalType": "string",
          "name": "",
          "type": "string"
        }
      ],
      "stateMutability": "view",
      "type": "function",
      "constant": true
    },
    {
      "inputs": [
        {
          "internalType": "uint256",
          "name": "tokenId",
          "type": "uint256"
        }
      ],
      "name": "printNFTsDescription",
      "outputs": [
        {
          "internalType": "string",
          "name": "",
          "type": "string"
        }
      ],
      "stateMutability": "view",
      "type": "function",
      "constant": true
    }
  ],
  "bytecode": "0x60806040523480156200001157600080fd5b506040518060200160405280600081525062000033816200006260201b60201c565b5062000054620000486200007e60201b60201c565b6200008660201b60201c565b600160048190555062000260565b80600290805190602001906200007a9291906200014c565b5050565b600033905090565b6000600360009054906101000a900473ffffffffffffffffffffffffffffffffffffffff16905081600360006101000a81548173ffffffffffffffffffffffffffffffffffffffff021916908373ffffffffffffffffffffffffffffffffffffffff1602179055508173ffffffffffffffffffffffffffffffffffffffff168173ffffffffffffffffffffffffffffffffffffffff167f8be0079c531659141344cd1fd0a4f28419497f9722a3daafe3b4186f6b6457e060405160405180910390a35050565b8280546200015a906200022b565b90600052602060002090601f0160209004810192826200017e5760008555620001ca565b82601f106200019957805160ff1916838001178555620001ca565b82800160010185558215620001ca579182015b82811115620001c9578251825591602001919060010190620001ac565b5b509050620001d99190620001dd565b5090565b5b80821115620001f8576000816000905550600101620001de565b5090565b7f4e487b7100000000000000000000000000000000000000000000000000000000600052602260045260246000fd5b600060028204905060018216806200024457607f821691505b6020821081036200025a5762000259620001fc565b5b50919050565b61436580620002706000396000f3fe60806040526004361061011e5760003560e01c80638da5cb5b116100a0578063b2733b3911610064578063b2733b39146103fc578063e47ac90614610425578063e985e9c514610462578063f242432a1461049f578063f2fde38b146104c85761011e565b80638da5cb5b1461032d57806394ab67fe146103585780639f8e9dbc14610381578063a02e5107146103aa578063a22cb465146103d35761011e565b8063265aa621116100e7578063265aa621146102335780632eb2c2d6146102735780634e1273f41461029c57806366d029cc146102d9578063715018a6146103165761011e565b8062fdd58e1461012357806301ffc9a7146101605780630e89341c1461019d5780630fe00cbc146101da578063150bde0314610217575b600080fd5b34801561012f57600080fd5b5061014a600480360381019061014591906127bc565b6104f1565b604051610157919061280b565b60405180910390f35b34801561016c57600080fd5b506101876004803603810190610182919061287e565b6105b9565b60405161019491906128c6565b60405180910390f35b3480156101a957600080fd5b506101c460048036038101906101bf91906128e1565b61069b565b6040516101d191906129a7565b60405180910390f35b3480156101e657600080fd5b5061020160048036038101906101fc91906128e1565b61072f565b60405161020e91906129d8565b60405180910390f35b610231600480360381019061022c91906128e1565b610762565b005b34801561023f57600080fd5b5061025a600480360381019061025591906128e1565b6109a4565b60405161026a94939291906129f3565b60405180910390f35b34801561027f57600080fd5b5061029a60048036038101906102959190612c43565b610af1565b005b3480156102a857600080fd5b506102c360048036038101906102be9190612dd5565b610b92565b6040516102d09190612f0b565b60405180910390f35b3480156102e557600080fd5b5061030060048036038101906102fb91906128e1565b610cab565b60405161030d91906129a7565b60405180910390f35b34801561032257600080fd5b5061032b610df4565b005b34801561033957600080fd5b50610342610e08565b60405161034f91906129d8565b60405180910390f35b34801561036457600080fd5b5061037f600480360381019061037a91906127bc565b610e32565b005b34801561038d57600080fd5b506103a860048036038101906103a39190612fce565b610f46565b005b3480156103b657600080fd5b506103d160048036038101906103cc91906128e1565b6110c2565b005b3480156103df57600080fd5b506103fa60048036038101906103f591906130a1565b6111cc565b005b34801561040857600080fd5b50610423600480360381019061041e91906130e1565b6111e2565b005b34801561043157600080fd5b5061044c600480360381019061044791906128e1565b61130a565b60405161045991906129a7565b60405180910390f35b34801561046e57600080fd5b5061048960048036038101906104849190613121565b611453565b60405161049691906128c6565b60405180910390f35b3480156104ab57600080fd5b506104c660048036038101906104c19190613161565b6114e7565b005b3480156104d457600080fd5b506104ef60048036038101906104ea91906131f8565b611588565b005b60008073ffffffffffffffffffffffffffffffffffffffff168373ffffffffffffffffffffffffffffffffffffffff1603610561576040517f08c379a000000000000000000000000000000000000000000000000000000000815260040161055890613297565b60405180910390fd5b60008083815260200190815260200160002060008473ffffffffffffffffffffffffffffffffffffffff1673ffffffffffffffffffffffffffffffffffffffff16815260200190815260200160002054905092915050565b60007fd9b67a26000000000000000000000000000000000000000000000000000000007bffffffffffffffffffffffffffffffffffffffffffffffffffffffff1916827bffffffffffffffffffffffffffffffffffffffffffffffffffffffff1916148061068457507f0e89341c000000000000000000000000000000000000000000000000000000007bffffffffffffffffffffffffffffffffffffffffffffffffffffffff1916827bffffffffffffffffffffffffffffffffffffffffffffffffffffffff1916145b8061069457506106938261160b565b5b9050919050565b6060600280546106aa906132e6565b80601f01602080910402602001604051908101604052809291908181526020018280546106d6906132e6565b80156107235780601f106106f857610100808354040283529160200191610723565b820191906000526020600020905b81548152906001019060200180831161070657829003601f168201915b50505050509050919050565b60076020528060005260406000206000915054906101000a900473ffffffffffffffffffffffffffffffffffffffff1681565b61076a611675565b6006600082815260200190815260200160002060030160009054906101000a900460ff166107cd576040517f08c379a00000000000000000000000000000000000000000000000000000000081526004016107c490613363565b60405180910390fd5b6006600082815260200190815260200160002060020154341015610826576040517f08c379a000000000000000000000000000000000000000000000000000000000815260040161081d906133f5565b60405180910390fd5b60006007600083815260200190815260200160002060009054906101000a900473ffffffffffffffffffffffffffffffffffffffff1690503373ffffffffffffffffffffffffffffffffffffffff168173ffffffffffffffffffffffffffffffffffffffff16036108cc576040517f08c379a00000000000000000000000000000000000000000000000000000000081526004016108c390613461565b60405180910390fd5b6108e98133846001604051806020016040528060008152506114e7565b60006006600084815260200190815260200160002060030160006101000a81548160ff0219169083151502179055506000819050610946348273ffffffffffffffffffffffffffffffffffffffff166116c490919063ffffffff16565b7fad546cba5af920bc2c64678bbd69f3d8965ac26d1b82f7ebf6f098aaa83352828333600660008781526020019081526020016000206002015460405161098f93929190613481565b60405180910390a150506109a16117b8565b50565b60066020528060005260406000206000915090508060000180546109c7906132e6565b80601f01602080910402602001604051908101604052809291908181526020018280546109f3906132e6565b8015610a405780601f10610a1557610100808354040283529160200191610a40565b820191906000526020600020905b815481529060010190602001808311610a2357829003601f168201915b505050505090806001018054610a55906132e6565b80601f0160208091040260200160405190810160405280929190818152602001828054610a81906132e6565b8015610ace5780601f10610aa357610100808354040283529160200191610ace565b820191906000526020600020905b815481529060010190602001808311610ab157829003601f168201915b5050505050908060020154908060030160009054906101000a900460ff16905084565b610af96117c2565b73ffffffffffffffffffffffffffffffffffffffff168573ffffffffffffffffffffffffffffffffffffffff161480610b3f5750610b3e85610b396117c2565b611453565b5b610b7e576040517f08c379a0000000000000000000000000000000000000000000000000000000008152600401610b759061352a565b60405180910390fd5b610b8b85858585856117ca565b5050505050565b60608151835114610bd8576040517f08c379a0000000000000000000000000000000000000000000000000000000008152600401610bcf906135bc565b60405180910390fd5b6000835167ffffffffffffffff811115610bf557610bf4612a4b565b5b604051908082528060200260200182016040528015610c235781602001602082028036833780820191505090505b50905060005b8451811015610ca057610c70858281518110610c4857610c476135dc565b5b6020026020010151858381518110610c6357610c626135dc565b5b60200260200101516104f1565b828281518110610c8357610c826135dc565b5b60200260200101818152505080610c999061363a565b9050610c29565b508091505092915050565b60603373ffffffffffffffffffffffffffffffffffffffff166007600084815260200190815260200160002060009054906101000a900473ffffffffffffffffffffffffffffffffffffffff1673ffffffffffffffffffffffffffffffffffffffff1614610d4e576040517f08c379a0000000000000000000000000000000000000000000000000000000008152600401610d45906136f4565b60405180910390fd5b600660008381526020019081526020016000206000018054610d6f906132e6565b80601f0160208091040260200160405190810160405280929190818152602001828054610d9b906132e6565b8015610de85780601f10610dbd57610100808354040283529160200191610de8565b820191906000526020600020905b815481529060010190602001808311610dcb57829003601f168201915b50505050509050919050565b610dfc611aeb565b610e066000611b69565b565b6000600360009054906101000a900473ffffffffffffffffffffffffffffffffffffffff16905090565b6007600082815260200190815260200160002060009054906101000a900473ffffffffffffffffffffffffffffffffffffffff1673ffffffffffffffffffffffffffffffffffffffff163373ffffffffffffffffffffffffffffffffffffffff1614610ed3576040517f08c379a0000000000000000000000000000000000000000000000000000000008152600401610eca90613786565b60405180910390fd5b610ef03383836001604051806020016040528060008152506114e7565b816007600083815260200190815260200160002060006101000a81548173ffffffffffffffffffffffffffffffffffffffff021916908373ffffffffffffffffffffffffffffffffffffffff1602179055505050565b600160056000828254610f5991906137a6565b9250508190555060006005549050610f833382600160405180602001604052806000815250611c2f565b610f8d8183611ddf565b60405180608001604052808581526020018481526020016000815260200160001515815250600660008381526020019081526020016000206000820151816000019080519060200190610fe1929190612671565b506020820151816001019080519060200190610ffe929190612671565b506040820151816002015560608201518160030160006101000a81548160ff021916908315150217905550905050336007600083815260200190815260200160002060006101000a81548173ffffffffffffffffffffffffffffffffffffffff021916908373ffffffffffffffffffffffffffffffffffffffff1602179055507f6b0cae87e2e16430820036cd47dc8b923cb4df5556775feb0fadba52f6764e2e81858560006040516110b49493929190613841565b60405180910390a150505050565b3373ffffffffffffffffffffffffffffffffffffffff166007600083815260200190815260200160002060009054906101000a900473ffffffffffffffffffffffffffffffffffffffff1673ffffffffffffffffffffffffffffffffffffffff1614611163576040517f08c379a000000000000000000000000000000000000000000000000000000000815260040161115a90613906565b60405180910390fd5b60006006600083815260200190815260200160002060030160006101000a81548160ff0219169083151502179055507fcd14eb7ebf273ed59a9fd1cf8651f3f40d9a04355b3511376f0d17b37ba224ff816040516111c1919061280b565b60405180910390a150565b6111de6111d76117c2565b8383611e0f565b5050565b3373ffffffffffffffffffffffffffffffffffffffff166007600084815260200190815260200160002060009054906101000a900473ffffffffffffffffffffffffffffffffffffffff1673ffffffffffffffffffffffffffffffffffffffff1614611283576040517f08c379a000000000000000000000000000000000000000000000000000000000815260040161127a90613998565b60405180910390fd5b80600660008481526020019081526020016000206002018190555060016006600084815260200190815260200160002060030160006101000a81548160ff0219169083151502179055507fa6cd73580a273eec6c1026108f6b63479fbaef5356dde4ff43e4b38dd187485f82826040516112fe9291906139b8565b60405180910390a15050565b60603373ffffffffffffffffffffffffffffffffffffffff166007600084815260200190815260200160002060009054906101000a900473ffffffffffffffffffffffffffffffffffffffff1673ffffffffffffffffffffffffffffffffffffffff16146113ad576040517f08c379a00000000000000000000000000000000000000000000000000000000081526004016113a4906136f4565b60405180910390fd5b6006600083815260200190815260200160002060010180546113ce906132e6565b80601f01602080910402602001604051908101604052809291908181526020018280546113fa906132e6565b80156114475780601f1061141c57610100808354040283529160200191611447565b820191906000526020600020905b81548152906001019060200180831161142a57829003601f168201915b50505050509050919050565b6000600160008473ffffffffffffffffffffffffffffffffffffffff1673ffffffffffffffffffffffffffffffffffffffff16815260200190815260200160002060008373ffffffffffffffffffffffffffffffffffffffff1673ffffffffffffffffffffffffffffffffffffffff16815260200190815260200160002060009054906101000a900460ff16905092915050565b6114ef6117c2565b73ffffffffffffffffffffffffffffffffffffffff168573ffffffffffffffffffffffffffffffffffffffff16148061153557506115348561152f6117c2565b611453565b5b611574576040517f08c379a000000000000000000000000000000000000000000000000000000000815260040161156b9061352a565b60405180910390fd5b6115818585858585611f7b565b5050505050565b611590611aeb565b600073ffffffffffffffffffffffffffffffffffffffff168173ffffffffffffffffffffffffffffffffffffffff16036115ff576040517f08c379a00000000000000000000000000000000000000000000000000000000081526004016115f690613a53565b60405180910390fd5b61160881611b69565b50565b60007f01ffc9a7000000000000000000000000000000000000000000000000000000007bffffffffffffffffffffffffffffffffffffffffffffffffffffffff1916827bffffffffffffffffffffffffffffffffffffffffffffffffffffffff1916149050919050565b6002600454036116ba576040517f08c379a00000000000000000000000000000000000000000000000000000000081526004016116b190613abf565b60405180910390fd5b6002600481905550565b80471015611707576040517f08c379a00000000000000000000000000000000000000000000000000000000081526004016116fe90613b2b565b60405180910390fd5b60008273ffffffffffffffffffffffffffffffffffffffff168260405161172d90613b7c565b60006040518083038185875af1925050503d806000811461176a576040519150601f19603f3d011682016040523d82523d6000602084013e61176f565b606091505b50509050806117b3576040517f08c379a00000000000000000000000000000000000000000000000000000000081526004016117aa90613c03565b60405180910390fd5b505050565b6001600481905550565b600033905090565b815183511461180e576040517f08c379a000000000000000000000000000000000000000000000000000000000815260040161180590613c95565b60405180910390fd5b600073ffffffffffffffffffffffffffffffffffffffff168473ffffffffffffffffffffffffffffffffffffffff160361187d576040517f08c379a000000000000000000000000000000000000000000000000000000000815260040161187490613d27565b60405180910390fd5b60006118876117c2565b9050611897818787878787612216565b60005b8451811015611a485760008582815181106118b8576118b76135dc565b5b6020026020010151905060008583815181106118d7576118d66135dc565b5b60200260200101519050600080600084815260200190815260200160002060008b73ffffffffffffffffffffffffffffffffffffffff1673ffffffffffffffffffffffffffffffffffffffff16815260200190815260200160002054905081811015611978576040517f08c379a000000000000000000000000000000000000000000000000000000000815260040161196f90613db9565b60405180910390fd5b81810360008085815260200190815260200160002060008c73ffffffffffffffffffffffffffffffffffffffff1673ffffffffffffffffffffffffffffffffffffffff168152602001908152602001600020819055508160008085815260200190815260200160002060008b73ffffffffffffffffffffffffffffffffffffffff1673ffffffffffffffffffffffffffffffffffffffff1681526020019081526020016000206000828254611a2d91906137a6565b9250508190555050505080611a419061363a565b905061189a565b508473ffffffffffffffffffffffffffffffffffffffff168673ffffffffffffffffffffffffffffffffffffffff168273ffffffffffffffffffffffffffffffffffffffff167f4a39dc06d4c0dbc64b70af90fd698a233a518aa5d07e595d983b8c0526c8f7fb8787604051611abf929190613dd9565b60405180910390a4611ad581878787878761221e565b611ae3818787878787612226565b505050505050565b611af36117c2565b73ffffffffffffffffffffffffffffffffffffffff16611b11610e08565b73ffffffffffffffffffffffffffffffffffffffff1614611b67576040517f08c379a0000000000000000000000000000000000000000000000000000000008152600401611b5e90613e5c565b60405180910390fd5b565b6000600360009054906101000a900473ffffffffffffffffffffffffffffffffffffffff16905081600360006101000a81548173ffffffffffffffffffffffffffffffffffffffff021916908373ffffffffffffffffffffffffffffffffffffffff1602179055508173ffffffffffffffffffffffffffffffffffffffff168173ffffffffffffffffffffffffffffffffffffffff167f8be0079c531659141344cd1fd0a4f28419497f9722a3daafe3b4186f6b6457e060405160405180910390a35050565b600073ffffffffffffffffffffffffffffffffffffffff168473ffffffffffffffffffffffffffffffffffffffff1603611c9e576040517f08c379a0000000000000000000000000000000000000000000000000000000008152600401611c9590613eee565b60405180910390fd5b6000611ca86117c2565b90506000611cb5856123fd565b90506000611cc2856123fd565b9050611cd383600089858589612216565b8460008088815260200190815260200160002060008973ffffffffffffffffffffffffffffffffffffffff1673ffffffffffffffffffffffffffffffffffffffff1681526020019081526020016000206000828254611d3291906137a6565b925050819055508673ffffffffffffffffffffffffffffffffffffffff16600073ffffffffffffffffffffffffffffffffffffffff168473ffffffffffffffffffffffffffffffffffffffff167fc3d58168c5ae7397731d063d5bbf3d657854427343f4c083240f7aacaa2d0f628989604051611db09291906139b8565b60405180910390a4611dc78360008985858961221e565b611dd683600089898989612477565b50505050505050565b611e0b3383600184604051602001611df79190613f4a565b604051602081830303815290604052611c2f565b5050565b8173ffffffffffffffffffffffffffffffffffffffff168373ffffffffffffffffffffffffffffffffffffffff1603611e7d576040517f08c379a0000000000000000000000000000000000000000000000000000000008152600401611e7490613fd3565b60405180910390fd5b80600160008573ffffffffffffffffffffffffffffffffffffffff1673ffffffffffffffffffffffffffffffffffffffff16815260200190815260200160002060008473ffffffffffffffffffffffffffffffffffffffff1673ffffffffffffffffffffffffffffffffffffffff16815260200190815260200160002060006101000a81548160ff0219169083151502179055508173ffffffffffffffffffffffffffffffffffffffff168373ffffffffffffffffffffffffffffffffffffffff167f17307eab39ab6107e8899845ad3d59bd9653f200f220920489ca2b5937696c3183604051611f6e91906128c6565b60405180910390a3505050565b600073ffffffffffffffffffffffffffffffffffffffff168473ffffffffffffffffffffffffffffffffffffffff1603611fea576040517f08c379a0000000000000000000000000000000000000000000000000000000008152600401611fe190613d27565b60405180910390fd5b6000611ff46117c2565b90506000612001856123fd565b9050600061200e856123fd565b905061201e838989858589612216565b600080600088815260200190815260200160002060008a73ffffffffffffffffffffffffffffffffffffffff1673ffffffffffffffffffffffffffffffffffffffff168152602001908152602001600020549050858110156120b5576040517f08c379a00000000000000000000000000000000000000000000000000000000081526004016120ac90613db9565b60405180910390fd5b85810360008089815260200190815260200160002060008b73ffffffffffffffffffffffffffffffffffffffff1673ffffffffffffffffffffffffffffffffffffffff168152602001908152602001600020819055508560008089815260200190815260200160002060008a73ffffffffffffffffffffffffffffffffffffffff1673ffffffffffffffffffffffffffffffffffffffff168152602001908152602001600020600082825461216a91906137a6565b925050819055508773ffffffffffffffffffffffffffffffffffffffff168973ffffffffffffffffffffffffffffffffffffffff168573ffffffffffffffffffffffffffffffffffffffff167fc3d58168c5ae7397731d063d5bbf3d657854427343f4c083240f7aacaa2d0f628a8a6040516121e79291906139b8565b60405180910390a46121fd848a8a86868a61221e565b61220b848a8a8a8a8a612477565b505050505050505050565b505050505050565b505050505050565b6122458473ffffffffffffffffffffffffffffffffffffffff1661264e565b156123f5578373ffffffffffffffffffffffffffffffffffffffff1663bc197c8187878686866040518663ffffffff1660e01b815260040161228b959493929190614048565b6020604051808303816000875af19250505080156122c757506040513d601f19601f820116820180604052508101906122c491906140c5565b60015b61236c576122d36140ff565b806308c379a00361232f57506122e7614121565b806122f25750612331565b806040517f08c379a000000000000000000000000000000000000000000000000000000000815260040161232691906129a7565b60405180910390fd5b505b6040517f08c379a000000000000000000000000000000000000000000000000000000000815260040161236390614223565b60405180910390fd5b63bc197c8160e01b7bffffffffffffffffffffffffffffffffffffffffffffffffffffffff1916817bffffffffffffffffffffffffffffffffffffffffffffffffffffffff1916146123f3576040517f08c379a00000000000000000000000000000000000000000000000000000000081526004016123ea906142b5565b60405180910390fd5b505b505050505050565b60606000600167ffffffffffffffff81111561241c5761241b612a4b565b5b60405190808252806020026020018201604052801561244a5781602001602082028036833780820191505090505b5090508281600081518110612462576124616135dc565b5b60200260200101818152505080915050919050565b6124968473ffffffffffffffffffffffffffffffffffffffff1661264e565b15612646578373ffffffffffffffffffffffffffffffffffffffff1663f23a6e6187878686866040518663ffffffff1660e01b81526004016124dc9594939291906142d5565b6020604051808303816000875af192505050801561251857506040513d601f19601f8201168201806040525081019061251591906140c5565b60015b6125bd576125246140ff565b806308c379a0036125805750612538614121565b806125435750612582565b806040517f08c379a000000000000000000000000000000000000000000000000000000000815260040161257791906129a7565b60405180910390fd5b505b6040517f08c379a00000000000000000000000000000000000000000000000000000000081526004016125b490614223565b60405180910390fd5b63f23a6e6160e01b7bffffffffffffffffffffffffffffffffffffffffffffffffffffffff1916817bffffffffffffffffffffffffffffffffffffffffffffffffffffffff191614612644576040517f08c379a000000000000000000000000000000000000000000000000000000000815260040161263b906142b5565b60405180910390fd5b505b505050505050565b6000808273ffffffffffffffffffffffffffffffffffffffff163b119050919050565b82805461267d906132e6565b90600052602060002090601f01602090048101928261269f57600085556126e6565b82601f106126b857805160ff19168380011785556126e6565b828001600101855582156126e6579182015b828111156126e55782518255916020019190600101906126ca565b5b5090506126f391906126f7565b5090565b5b808211156127105760008160009055506001016126f8565b5090565b6000604051905090565b600080fd5b600080fd5b600073ffffffffffffffffffffffffffffffffffffffff82169050919050565b600061275382612728565b9050919050565b61276381612748565b811461276e57600080fd5b50565b6000813590506127808161275a565b92915050565b6000819050919050565b61279981612786565b81146127a457600080fd5b50565b6000813590506127b681612790565b92915050565b600080604083850312156127d3576127d261271e565b5b60006127e185828601612771565b92505060206127f2858286016127a7565b9150509250929050565b61280581612786565b82525050565b600060208201905061282060008301846127fc565b92915050565b60007fffffffff0000000000000000000000000000000000000000000000000000000082169050919050565b61285b81612826565b811461286657600080fd5b50565b60008135905061287881612852565b92915050565b6000602082840312156128945761289361271e565b5b60006128a284828501612869565b91505092915050565b60008115159050919050565b6128c0816128ab565b82525050565b60006020820190506128db60008301846128b7565b92915050565b6000602082840312156128f7576128f661271e565b5b6000612905848285016127a7565b91505092915050565b600081519050919050565b600082825260208201905092915050565b60005b8381101561294857808201518184015260208101905061292d565b83811115612957576000848401525b50505050565b6000601f19601f8301169050919050565b60006129798261290e565b6129838185612919565b935061299381856020860161292a565b61299c8161295d565b840191505092915050565b600060208201905081810360008301526129c1818461296e565b905092915050565b6129d281612748565b82525050565b60006020820190506129ed60008301846129c9565b92915050565b60006080820190508181036000830152612a0d818761296e565b90508181036020830152612a21818661296e565b9050612a3060408301856127fc565b612a3d60608301846128b7565b95945050505050565b600080fd5b7f4e487b7100000000000000000000000000000000000000000000000000000000600052604160045260246000fd5b612a838261295d565b810181811067ffffffffffffffff82111715612aa257612aa1612a4b565b5b80604052505050565b6000612ab5612714565b9050612ac18282612a7a565b919050565b600067ffffffffffffffff821115612ae157612ae0612a4b565b5b602082029050602081019050919050565b600080fd5b6000612b0a612b0584612ac6565b612aab565b90508083825260208201905060208402830185811115612b2d57612b2c612af2565b5b835b81811015612b565780612b4288826127a7565b845260208401935050602081019050612b2f565b5050509392505050565b600082601f830112612b7557612b74612a46565b5b8135612b85848260208601612af7565b91505092915050565b600080fd5b600067ffffffffffffffff821115612bae57612bad612a4b565b5b612bb78261295d565b9050602081019050919050565b82818337600083830152505050565b6000612be6612be184612b93565b612aab565b905082815260208101848484011115612c0257612c01612b8e565b5b612c0d848285612bc4565b509392505050565b600082601f830112612c2a57612c29612a46565b5b8135612c3a848260208601612bd3565b91505092915050565b600080600080600060a08688031215612c5f57612c5e61271e565b5b6000612c6d88828901612771565b9550506020612c7e88828901612771565b945050604086013567ffffffffffffffff811115612c9f57612c9e612723565b5b612cab88828901612b60565b935050606086013567ffffffffffffffff811115612ccc57612ccb612723565b5b612cd888828901612b60565b925050608086013567ffffffffffffffff811115612cf957612cf8612723565b5b612d0588828901612c15565b9150509295509295909350565b600067ffffffffffffffff821115612d2d57612d2c612a4b565b5b602082029050602081019050919050565b6000612d51612d4c84612d12565b612aab565b90508083825260208201905060208402830185811115612d7457612d73612af2565b5b835b81811015612d9d5780612d898882612771565b845260208401935050602081019050612d76565b5050509392505050565b600082601f830112612dbc57612dbb612a46565b5b8135612dcc848260208601612d3e565b91505092915050565b60008060408385031215612dec57612deb61271e565b5b600083013567ffffffffffffffff811115612e0a57612e09612723565b5b612e1685828601612da7565b925050602083013567ffffffffffffffff811115612e3757612e36612723565b5b612e4385828601612b60565b9150509250929050565b600081519050919050565b600082825260208201905092915050565b6000819050602082019050919050565b612e8281612786565b82525050565b6000612e948383612e79565b60208301905092915050565b6000602082019050919050565b6000612eb882612e4d565b612ec28185612e58565b9350612ecd83612e69565b8060005b83811015612efe578151612ee58882612e88565b9750612ef083612ea0565b925050600181019050612ed1565b5085935050505092915050565b60006020820190508181036000830152612f258184612ead565b905092915050565b600067ffffffffffffffff821115612f4857612f47612a4b565b5b612f518261295d565b9050602081019050919050565b6000612f71612f6c84612f2d565b612aab565b905082815260208101848484011115612f8d57612f8c612b8e565b5b612f98848285612bc4565b509392505050565b600082601f830112612fb557612fb4612a46565b5b8135612fc5848260208601612f5e565b91505092915050565b600080600060608486031215612fe757612fe661271e565b5b600084013567ffffffffffffffff81111561300557613004612723565b5b61301186828701612fa0565b935050602084013567ffffffffffffffff81111561303257613031612723565b5b61303e86828701612fa0565b925050604084013567ffffffffffffffff81111561305f5761305e612723565b5b61306b86828701612fa0565b9150509250925092565b61307e816128ab565b811461308957600080fd5b50565b60008135905061309b81613075565b92915050565b600080604083850312156130b8576130b761271e565b5b60006130c685828601612771565b92505060206130d78582860161308c565b9150509250929050565b600080604083850312156130f8576130f761271e565b5b6000613106858286016127a7565b9250506020613117858286016127a7565b9150509250929050565b600080604083850312156131385761313761271e565b5b600061314685828601612771565b925050602061315785828601612771565b9150509250929050565b600080600080600060a0868803121561317d5761317c61271e565b5b600061318b88828901612771565b955050602061319c88828901612771565b94505060406131ad888289016127a7565b93505060606131be888289016127a7565b925050608086013567ffffffffffffffff8111156131df576131de612723565b5b6131eb88828901612c15565b9150509295509295909350565b60006020828403121561320e5761320d61271e565b5b600061321c84828501612771565b91505092915050565b7f455243313135353a2061646472657373207a65726f206973206e6f742061207660008201527f616c6964206f776e657200000000000000000000000000000000000000000000602082015250565b6000613281602a83612919565b915061328c82613225565b604082019050919050565b600060208201905081810360008301526132b081613274565b9050919050565b7f4e487b7100000000000000000000000000000000000000000000000000000000600052602260045260246000fd5b600060028204905060018216806132fe57607f821691505b602082108103613311576133106132b7565b5b50919050565b7f54686973204e4654206973206e6f7420666f722073616c650000000000000000600082015250565b600061334d601883612919565b915061335882613317565b602082019050919050565b6000602082019050818103600083015261337c81613340565b9050919050565b7f496e73756666696369656e742066756e647320746f207075726368617365207460008201527f686973204e465400000000000000000000000000000000000000000000000000602082015250565b60006133df602783612919565b91506133ea82613383565b604082019050919050565b6000602082019050818103600083015261340e816133d2565b9050919050565b7f596f7520616c7265616479206f776e2074686973204e46542e00000000000000600082015250565b600061344b601983612919565b915061345682613415565b602082019050919050565b6000602082019050818103600083015261347a8161343e565b9050919050565b600060608201905061349660008301866127fc565b6134a360208301856129c9565b6134b060408301846127fc565b949350505050565b7f455243313135353a2063616c6c6572206973206e6f7420746f6b656e206f776e60008201527f6572206f7220617070726f766564000000000000000000000000000000000000602082015250565b6000613514602e83612919565b915061351f826134b8565b604082019050919050565b6000602082019050818103600083015261354381613507565b9050919050565b7f455243313135353a206163636f756e747320616e6420696473206c656e67746860008201527f206d69736d617463680000000000000000000000000000000000000000000000602082015250565b60006135a6602983612919565b91506135b18261354a565b604082019050919050565b600060208201905081810360008301526135d581613599565b9050919050565b7f4e487b7100000000000000000000000000000000000000000000000000000000600052603260045260246000fd5b7f4e487b7100000000000000000000000000000000000000000000000000000000600052601160045260246000fd5b600061364582612786565b91507fffffffffffffffffffffffffffffffffffffffffffffffffffffffffffffffff82036136775761367661360b565b5b600182019050919050565b7f4f6e6c79207468652063726561746f722063616e207265616420746865204e4660008201527f5473000000000000000000000000000000000000000000000000000000000000602082015250565b60006136de602283612919565b91506136e982613682565b604082019050919050565b6000602082019050818103600083015261370d816136d1565b9050919050565b7f4f6e6c79207468652063726561746f722063616e207472616e7366657220746860008201527f65204e46542e0000000000000000000000000000000000000000000000000000602082015250565b6000613770602683612919565b915061377b82613714565b604082019050919050565b6000602082019050818103600083015261379f81613763565b9050919050565b60006137b182612786565b91506137bc83612786565b9250827fffffffffffffffffffffffffffffffffffffffffffffffffffffffffffffffff038211156137f1576137f061360b565b5b828201905092915050565b6000819050919050565b6000819050919050565b600061382b613826613821846137fc565b613806565b612786565b9050919050565b61383b81613810565b82525050565b600060808201905061385660008301876127fc565b8181036020830152613868818661296e565b9050818103604083015261387c818561296e565b905061388b6060830184613832565b95945050505050565b7f4f6e6c79207468652063726561746f722063616e2072656d6f7665207468652060008201527f4e46542066726f6d2073616c652e000000000000000000000000000000000000602082015250565b60006138f0602e83612919565b91506138fb82613894565b604082019050919050565b6000602082019050818103600083015261391f816138e3565b9050919050565b7f4f6e6c79207468652063726561746f722063616e206c69737420746865204e4660008201527f5420666f722073616c652e000000000000000000000000000000000000000000602082015250565b6000613982602b83612919565b915061398d82613926565b604082019050919050565b600060208201905081810360008301526139b181613975565b9050919050565b60006040820190506139cd60008301856127fc565b6139da60208301846127fc565b9392505050565b7f4f776e61626c653a206e6577206f776e657220697320746865207a65726f206160008201527f6464726573730000000000000000000000000000000000000000000000000000602082015250565b6000613a3d602683612919565b9150613a48826139e1565b604082019050919050565b60006020820190508181036000830152613a6c81613a30565b9050919050565b7f5265656e7472616e637947756172643a207265656e7472616e742063616c6c00600082015250565b6000613aa9601f83612919565b9150613ab482613a73565b602082019050919050565b60006020820190508181036000830152613ad881613a9c565b9050919050565b7f416464726573733a20696e73756666696369656e742062616c616e6365000000600082015250565b6000613b15601d83612919565b9150613b2082613adf565b602082019050919050565b60006020820190508181036000830152613b4481613b08565b9050919050565b600081905092915050565b50565b6000613b66600083613b4b565b9150613b7182613b56565b600082019050919050565b6000613b8782613b59565b9150819050919050565b7f416464726573733a20756e61626c6520746f2073656e642076616c75652c207260008201527f6563697069656e74206d61792068617665207265766572746564000000000000602082015250565b6000613bed603a83612919565b9150613bf882613b91565b604082019050919050565b60006020820190508181036000830152613c1c81613be0565b9050919050565b7f455243313135353a2069647320616e6420616d6f756e7473206c656e6774682060008201527f6d69736d61746368000000000000000000000000000000000000000000000000602082015250565b6000613c7f602883612919565b9150613c8a82613c23565b604082019050919050565b60006020820190508181036000830152613cae81613c72565b9050919050565b7f455243313135353a207472616e7366657220746f20746865207a65726f20616460008201527f6472657373000000000000000000000000000000000000000000000000000000602082015250565b6000613d11602583612919565b9150613d1c82613cb5565b604082019050919050565b60006020820190508181036000830152613d4081613d04565b9050919050565b7f455243313135353a20696e73756666696369656e742062616c616e636520666f60008201527f72207472616e7366657200000000000000000000000000000000000000000000602082015250565b6000613da3602a83612919565b9150613dae82613d47565b604082019050919050565b60006020820190508181036000830152613dd281613d96565b9050919050565b60006040820190508181036000830152613df38185612ead565b90508181036020830152613e078184612ead565b90509392505050565b7f4f776e61626c653a2063616c6c6572206973206e6f7420746865206f776e6572600082015250565b6000613e46602083612919565b9150613e5182613e10565b602082019050919050565b60006020820190508181036000830152613e7581613e39565b9050919050565b7f455243313135353a206d696e7420746f20746865207a65726f2061646472657360008201527f7300000000000000000000000000000000000000000000000000000000000000602082015250565b6000613ed8602183612919565b9150613ee382613e7c565b604082019050919050565b60006020820190508181036000830152613f0781613ecb565b9050919050565b600081905092915050565b6000613f248261290e565b613f2e8185613f0e565b9350613f3e81856020860161292a565b80840191505092915050565b6000613f568284613f19565b915081905092915050565b7f455243313135353a2073657474696e6720617070726f76616c2073746174757360008201527f20666f722073656c660000000000000000000000000000000000000000000000602082015250565b6000613fbd602983612919565b9150613fc882613f61565b604082019050919050565b60006020820190508181036000830152613fec81613fb0565b9050919050565b600081519050919050565b600082825260208201905092915050565b600061401a82613ff3565b6140248185613ffe565b935061403481856020860161292a565b61403d8161295d565b840191505092915050565b600060a08201905061405d60008301886129c9565b61406a60208301876129c9565b818103604083015261407c8186612ead565b905081810360608301526140908185612ead565b905081810360808301526140a4818461400f565b90509695505050505050565b6000815190506140bf81612852565b92915050565b6000602082840312156140db576140da61271e565b5b60006140e9848285016140b0565b91505092915050565b60008160e01c9050919050565b600060033d111561411e5760046000803e61411b6000516140f2565b90505b90565b600060443d106141ae57614133612714565b60043d036004823e80513d602482011167ffffffffffffffff8211171561415b5750506141ae565b808201805167ffffffffffffffff81111561417957505050506141ae565b80602083010160043d0385018111156141965750505050506141ae565b6141a582602001850186612a7a565b82955050505050505b90565b7f455243313135353a207472616e7366657220746f206e6f6e2d4552433131353560008201527f526563656976657220696d706c656d656e746572000000000000000000000000602082015250565b600061420d603483612919565b9150614218826141b1565b604082019050919050565b6000602082019050818103600083015261423c81614200565b9050919050565b7f455243313135353a204552433131353552656365697665722072656a6563746560008201527f6420746f6b656e73000000000000000000000000000000000000000000000000602082015250565b600061429f602883612919565b91506142aa82614243565b604082019050919050565b600060208201905081810360008301526142ce81614292565b9050919050565b600060a0820190506142ea60008301886129c9565b6142f760208301876129c9565b61430460408301866127fc565b61431160608301856127fc565b8181036080830152614323818461400f565b9050969550505050505056fea2646970667358221220c7ca2619bfd1c8f54f3985700dde048b0658d79d711153dd95e8b4c40f76c0e264736f6c634300080d0033",
  "immutableReferences": {},
  "source": "// SPDX-License-Identifier: MIT\npragma solidity ^0.8.13;\n\nimport \"@openzeppelin/contracts/token/ERC1155/ERC1155.sol\";\nimport \"@openzeppelin/contracts/access/Ownable.sol\";\nimport \"@openzeppelin/contracts/security/ReentrancyGuard.sol\";\nimport \"@openzeppelin/contracts/utils/Address.sol\";\nimport \"@openzeppelin/contracts/utils/Strings.sol\";\n\ncontract NFTMarketplace is ERC1155, Ownable, ReentrancyGuard {\n    using Address for address payable;\n\n    uint256 private _tokenIds;\n\n    struct NFT {\n        string name;\n        string description;\n        uint256 price;\n        bool forSale;\n    }\n\n    mapping(uint256 => NFT) public nfts;\n    mapping(uint256 => address) public nftCreators;\n\n    event NFTCreated(uint256 tokenId, string name, string description, uint256 price);\n    event NFTListed(uint256 tokenId, uint256 price);\n    event NFTUnlisted(uint256 tokenId);\n    event NFTPurchased(uint256 tokenId, address buyer, uint256 price);\n\n    //\"https://ipfs.io/ipfs/bafybeiadjwxddlh4poqqa5i64hxypss4rbn6bxwxddbi5eh7tbyx3plo54/{id}.json\"\n    constructor() ERC1155(\"\") {\n        // _mint(msg.sender, 1, 1, \"\");\n        // _mint(msg.sender, 2, 1, \"\");\n    }\n\n    function createNFT(string memory name, string memory description, string memory tokenURI) public {\n        _tokenIds += 1;\n        uint256 tokenId = _tokenIds;\n\n        _mint(msg.sender, tokenId, 1, \"\");\n        _setURI(tokenId, tokenURI);\n\n        nfts[tokenId] = NFT(name, description, 0, false);\n        nftCreators[tokenId] = msg.sender;\n\n        emit NFTCreated(tokenId, name, description, 0);\n    }\n\n    function transferNFT(address to, uint256 tokenId) public {\n        require(msg.sender == nftCreators[tokenId], \"Only the creator can transfer the NFT.\");\n        safeTransferFrom(msg.sender, to, tokenId, 1, \"\");\n        nftCreators[tokenId] = to;\n    }\n\n    function listNFTForSale(uint256 tokenId, uint256 price) public {\n        require(nftCreators[tokenId] == msg.sender, \"Only the creator can list the NFT for sale.\");\n\n        nfts[tokenId].price = price;\n        nfts[tokenId].forSale = true;\n\n        emit NFTListed(tokenId, price);\n    }\n\n    function removeNFTFromSale(uint256 tokenId) public {\n        require(nftCreators[tokenId] == msg.sender, \"Only the creator can remove the NFT from sale.\");\n\n        nfts[tokenId].forSale = false;\n\n        emit NFTUnlisted(tokenId);\n    }\n\n    function purchaseNFT(uint256 tokenId) public payable nonReentrant {\n        require(nfts[tokenId].forSale, \"This NFT is not for sale\");\n        require(msg.value >= nfts[tokenId].price, \"Insufficient funds to purchase this NFT\");\n\n        address seller = nftCreators[tokenId];\n        require(seller != msg.sender, \"You already own this NFT.\");\n\n        safeTransferFrom(seller, msg.sender, tokenId, 1, \"\");\n\n        nfts[tokenId].forSale = false;\n\n        address payable buyer = payable(seller);\n        buyer.sendValue(msg.value);\n\n        emit NFTPurchased(tokenId, msg.sender, nfts[tokenId].price);\n    }\n\n    function _setURI(uint256 tokenId, string memory tokenURI) internal {\n        _mint(msg.sender, tokenId, 1, abi.encodePacked(tokenURI));\n    }\n\n    // function uri(uint256 tokenId) override public pure returns (string memory) {\n    //     return string(\n    //         abi.encodePacked(\n    //             \"https://ipfs.io/ipfs/bafybeiadjwxddlh4poqqa5i64hxypss4rbn6bxwxddbi5eh7tbyx3plo54/\",\n    //             Strings.toString(tokenId),\".json\"\n    //         )\n    //     );\n    // }\n\n    function printNFTsName(uint256 tokenId) view public returns (string memory){\n        require(nftCreators[tokenId] == msg.sender, \"Only the creator can read the NFTs\");\n\n        return nfts[tokenId].name;\n    }\n\n    function printNFTsDescription(uint256 tokenId) view public returns (string memory){\n        require(nftCreators[tokenId] == msg.sender, \"Only the creator can read the NFTs\");\n\n        return nfts[tokenId].description;\n    }\n}",
  "sourcePath": "/home/bridges/eth_sample/contracts/NFTContract.sol",
  "compiler": {
    "name": "solc",
    "version": "0.8.13+commit.abaa5c0e.Emscripten.clang"
  },
  "schemaVersion": "3.4.13",
  "updatedAt": "2023-05-04T01:12:53.764Z",
  "networkType": "ethereum",
  "devdoc": {
    "kind": "dev",
    "methods": {
      "balanceOf(address,uint256)": {
        "details": "See {IERC1155-balanceOf}. Requirements: - `account` cannot be the zero address."
      },
      "balanceOfBatch(address[],uint256[])": {
        "details": "See {IERC1155-balanceOfBatch}. Requirements: - `accounts` and `ids` must have the same length."
      },
      "isApprovedForAll(address,address)": {
        "details": "See {IERC1155-isApprovedForAll}."
      },
      "owner()": {
        "details": "Returns the address of the current owner."
      },
      "renounceOwnership()": {
        "details": "Leaves the contract without owner. It will not be possible to call `onlyOwner` functions anymore. Can only be called by the current owner. NOTE: Renouncing ownership will leave the contract without an owner, thereby removing any functionality that is only available to the owner."
      },
      "safeBatchTransferFrom(address,address,uint256[],uint256[],bytes)": {
        "details": "See {IERC1155-safeBatchTransferFrom}."
      },
      "safeTransferFrom(address,address,uint256,uint256,bytes)": {
        "details": "See {IERC1155-safeTransferFrom}."
      },
      "setApprovalForAll(address,bool)": {
        "details": "See {IERC1155-setApprovalForAll}."
      },
      "supportsInterface(bytes4)": {
        "details": "See {IERC165-supportsInterface}."
      },
      "transferOwnership(address)": {
        "details": "Transfers ownership of the contract to a new account (`newOwner`). Can only be called by the current owner."
      },
      "uri(uint256)": {
        "details": "See {IERC1155MetadataURI-uri}. This implementation returns the same URI for *all* token types. It relies on the token type ID substitution mechanism https://eips.ethereum.org/EIPS/eip-1155#metadata[defined in the EIP]. Clients calling this function must replace the `\\{id\\}` substring with the actual token type ID."
      }
    },
    "version": 1
  },
  "userdoc": {
    "kind": "user",
    "methods": {},
    "version": 1
  }
}