{
  "contractName": "NFTMarketplace",
  "abi": [
    {
      "inputs": [],
      "stateMutability": "nonpayable",
      "type": "constructor"
    },
    {
      "anonymous": false,
      "inputs": [
        {
          "indexed": true,
          "internalType": "address",
          "name": "account",
          "type": "address"
        },
        {
          "indexed": true,
          "internalType": "address",
          "name": "operator",
          "type": "address"
        },
        {
          "indexed": false,
          "internalType": "bool",
          "name": "approved",
          "type": "bool"
        }
      ],
      "name": "ApprovalForAll",
      "type": "event"
    },
    {
      "anonymous": false,
      "inputs": [
        {
          "indexed": false,
          "internalType": "uint256",
          "name": "tokenId",
          "type": "uint256"
        },
        {
          "indexed": false,
          "internalType": "string",
          "name": "name",
          "type": "string"
        },
        {
          "indexed": false,
          "internalType": "string",
          "name": "description",
          "type": "string"
        },
        {
          "indexed": false,
          "internalType": "uint256",
          "name": "price",
          "type": "uint256"
        }
      ],
      "name": "NFTCreated",
      "type": "event"
    },
    {
      "anonymous": false,
      "inputs": [
        {
          "indexed": false,
          "internalType": "uint256",
          "name": "tokenId",
          "type": "uint256"
        },
        {
          "indexed": false,
          "internalType": "uint256",
          "name": "price",
          "type": "uint256"
        }
      ],
      "name": "NFTListed",
      "type": "event"
    },
    {
      "anonymous": false,
      "inputs": [
        {
          "indexed": false,
          "internalType": "uint256",
          "name": "tokenId",
          "type": "uint256"
        },
        {
          "indexed": false,
          "internalType": "address",
          "name": "buyer",
          "type": "address"
        },
        {
          "indexed": false,
          "internalType": "uint256",
          "name": "price",
          "type": "uint256"
        }
      ],
      "name": "NFTPurchased",
      "type": "event"
    },
    {
      "anonymous": false,
      "inputs": [
        {
          "indexed": false,
          "internalType": "uint256",
          "name": "tokenId",
          "type": "uint256"
        }
      ],
      "name": "NFTUnlisted",
      "type": "event"
    },
    {
      "anonymous": false,
      "inputs": [
        {
          "indexed": true,
          "internalType": "address",
          "name": "previousOwner",
          "type": "address"
        },
        {
          "indexed": true,
          "internalType": "address",
          "name": "newOwner",
          "type": "address"
        }
      ],
      "name": "OwnershipTransferred",
      "type": "event"
    },
    {
      "anonymous": false,
      "inputs": [
        {
          "indexed": true,
          "internalType": "address",
          "name": "operator",
          "type": "address"
        },
        {
          "indexed": true,
          "internalType": "address",
          "name": "from",
          "type": "address"
        },
        {
          "indexed": true,
          "internalType": "address",
          "name": "to",
          "type": "address"
        },
        {
          "indexed": false,
          "internalType": "uint256[]",
          "name": "ids",
          "type": "uint256[]"
        },
        {
          "indexed": false,
          "internalType": "uint256[]",
          "name": "values",
          "type": "uint256[]"
        }
      ],
      "name": "TransferBatch",
      "type": "event"
    },
    {
      "anonymous": false,
      "inputs": [
        {
          "indexed": true,
          "internalType": "address",
          "name": "operator",
          "type": "address"
        },
        {
          "indexed": true,
          "internalType": "address",
          "name": "from",
          "type": "address"
        },
        {
          "indexed": true,
          "internalType": "address",
          "name": "to",
          "type": "address"
        },
        {
          "indexed": false,
          "internalType": "uint256",
          "name": "id",
          "type": "uint256"
        },
        {
          "indexed": false,
          "internalType": "uint256",
          "name": "value",
          "type": "uint256"
        }
      ],
      "name": "TransferSingle",
      "type": "event"
    },
    {
      "anonymous": false,
      "inputs": [
        {
          "indexed": false,
          "internalType": "string",
          "name": "value",
          "type": "string"
        },
        {
          "indexed": true,
          "internalType": "uint256",
          "name": "id",
          "type": "uint256"
        }
      ],
      "name": "URI",
      "type": "event"
    },
    {
      "inputs": [
        {
          "internalType": "address",
          "name": "account",
          "type": "address"
        },
        {
          "internalType": "uint256",
          "name": "id",
          "type": "uint256"
        }
      ],
      "name": "balanceOf",
      "outputs": [
        {
          "internalType": "uint256",
          "name": "",
          "type": "uint256"
        }
      ],
      "stateMutability": "view",
      "type": "function",
      "constant": true
    },
    {
      "inputs": [
        {
          "internalType": "address[]",
          "name": "accounts",
          "type": "address[]"
        },
        {
          "internalType": "uint256[]",
          "name": "ids",
          "type": "uint256[]"
        }
      ],
      "name": "balanceOfBatch",
      "outputs": [
        {
          "internalType": "uint256[]",
          "name": "",
          "type": "uint256[]"
        }
      ],
      "stateMutability": "view",
      "type": "function",
      "constant": true
    },
    {
      "inputs": [
        {
          "internalType": "address",
          "name": "account",
          "type": "address"
        },
        {
          "internalType": "address",
          "name": "operator",
          "type": "address"
        }
      ],
      "name": "isApprovedForAll",
      "outputs": [
        {
          "internalType": "bool",
          "name": "",
          "type": "bool"
        }
      ],
      "stateMutability": "view",
      "type": "function",
      "constant": true
    },
    {
      "inputs": [
        {
          "internalType": "uint256",
          "name": "",
          "type": "uint256"
        }
      ],
      "name": "nftCreators",
      "outputs": [
        {
          "internalType": "address",
          "name": "",
          "type": "address"
        }
      ],
      "stateMutability": "view",
      "type": "function",
      "constant": true
    },
    {
      "inputs": [
        {
          "internalType": "uint256",
          "name": "",
          "type": "uint256"
        }
      ],
      "name": "nfts",
      "outputs": [
        {
          "internalType": "string",
          "name": "name",
          "type": "string"
        },
        {
          "internalType": "string",
          "name": "description",
          "type": "string"
        },
        {
          "internalType": "uint256",
          "name": "price",
          "type": "uint256"
        },
        {
          "internalType": "bool",
          "name": "forSale",
          "type": "bool"
        }
      ],
      "stateMutability": "view",
      "type": "function",
      "constant": true
    },
    {
      "inputs": [],
      "name": "owner",
      "outputs": [
        {
          "internalType": "address",
          "name": "",
          "type": "address"
        }
      ],
      "stateMutability": "view",
      "type": "function",
      "constant": true
    },
    {
      "inputs": [],
      "name": "renounceOwnership",
      "outputs": [],
      "stateMutability": "nonpayable",
      "type": "function"
    },
    {
      "inputs": [
        {
          "internalType": "address",
          "name": "from",
          "type": "address"
        },
        {
          "internalType": "address",
          "name": "to",
          "type": "address"
        },
        {
          "internalType": "uint256[]",
          "name": "ids",
          "type": "uint256[]"
        },
        {
          "internalType": "uint256[]",
          "name": "amounts",
          "type": "uint256[]"
        },
        {
          "internalType": "bytes",
          "name": "data",
          "type": "bytes"
        }
      ],
      "name": "safeBatchTransferFrom",
      "outputs": [],
      "stateMutability": "nonpayable",
      "type": "function"
    },
    {
      "inputs": [
        {
          "internalType": "address",
          "name": "from",
          "type": "address"
        },
        {
          "internalType": "address",
          "name": "to",
          "type": "address"
        },
        {
          "internalType": "uint256",
          "name": "id",
          "type": "uint256"
        },
        {
          "internalType": "uint256",
          "name": "amount",
          "type": "uint256"
        },
        {
          "internalType": "bytes",
          "name": "data",
          "type": "bytes"
        }
      ],
      "name": "safeTransferFrom",
      "outputs": [],
      "stateMutability": "nonpayable",
      "type": "function"
    },
    {
      "inputs": [
        {
          "internalType": "address",
          "name": "operator",
          "type": "address"
        },
        {
          "internalType": "bool",
          "name": "approved",
          "type": "bool"
        }
      ],
      "name": "setApprovalForAll",
      "outputs": [],
      "stateMutability": "nonpayable",
      "type": "function"
    },
    {
      "inputs": [
        {
          "internalType": "bytes4",
          "name": "interfaceId",
          "type": "bytes4"
        }
      ],
      "name": "supportsInterface",
      "outputs": [
        {
          "internalType": "bool",
          "name": "",
          "type": "bool"
        }
      ],
      "stateMutability": "view",
      "type": "function",
      "constant": true
    },
    {
      "inputs": [
        {
          "internalType": "address",
          "name": "newOwner",
          "type": "address"
        }
      ],
      "name": "transferOwnership",
      "outputs": [],
      "stateMutability": "nonpayable",
      "type": "function"
    },
    {
      "inputs": [
        {
          "internalType": "uint256",
          "name": "",
          "type": "uint256"
        }
      ],
      "name": "uri",
      "outputs": [
        {
          "internalType": "string",
          "name": "",
          "type": "string"
        }
      ],
      "stateMutability": "view",
      "type": "function",
      "constant": true
    },
    {
      "inputs": [
        {
          "internalType": "string",
          "name": "name",
          "type": "string"
        },
        {
          "internalType": "string",
          "name": "description",
          "type": "string"
        },
        {
          "internalType": "string",
          "name": "tokenURI",
          "type": "string"
        }
      ],
      "name": "createNFT",
      "outputs": [],
      "stateMutability": "nonpayable",
      "type": "function"
    },
    {
      "inputs": [
        {
          "internalType": "address",
          "name": "to",
          "type": "address"
        },
        {
          "internalType": "uint256",
          "name": "tokenId",
          "type": "uint256"
        }
      ],
      "name": "transferNFT",
      "outputs": [],
      "stateMutability": "nonpayable",
      "type": "function"
    },
    {
      "inputs": [
        {
          "internalType": "uint256",
          "name": "tokenId",
          "type": "uint256"
        },
        {
          "internalType": "uint256",
          "name": "price",
          "type": "uint256"
        }
      ],
      "name": "listNFTForSale",
      "outputs": [],
      "stateMutability": "nonpayable",
      "type": "function"
    },
    {
      "inputs": [
        {
          "internalType": "uint256",
          "name": "tokenId",
          "type": "uint256"
        }
      ],
      "name": "removeNFTFromSale",
      "outputs": [],
      "stateMutability": "nonpayable",
      "type": "function"
    },
    {
      "inputs": [
        {
          "internalType": "uint256",
          "name": "tokenId",
          "type": "uint256"
        }
      ],
      "name": "purchaseNFT",
      "outputs": [],
      "stateMutability": "payable",
      "type": "function",
      "payable": true
    },
    {
      "inputs": [
        {
          "internalType": "uint256",
          "name": "tokenId",
          "type": "uint256"
        }
      ],
      "name": "printNFTsName",
      "outputs": [
        {
          "internalType": "string",
          "name": "",
          "type": "string"
        }
      ],
      "stateMutability": "view",
      "type": "function",
      "constant": true
    },
    {
      "inputs": [
        {
          "internalType": "uint256",
          "name": "tokenId",
          "type": "uint256"
        }
      ],
      "name": "printNFTsDescription",
      "outputs": [
        {
          "internalType": "string",
          "name": "",
          "type": "string"
        }
      ],
      "stateMutability": "view",
      "type": "function",
      "constant": true
    },
    {
      "inputs": [
        {
          "internalType": "uint256",
          "name": "tokenId",
          "type": "uint256"
        }
      ],
      "name": "printNFTsOwner",
      "outputs": [
        {
          "internalType": "address",
          "name": "",
          "type": "address"
        }
      ],
      "stateMutability": "view",
      "type": "function",
      "constant": true
    },
    {
      "inputs": [
        {
          "internalType": "uint256",
          "name": "tokenId",
          "type": "uint256"
        }
      ],
      "name": "printNFTsPrice",
      "outputs": [
        {
          "internalType": "uint256",
          "name": "",
          "type": "uint256"
        }
      ],
      "stateMutability": "view",
      "type": "function",
      "constant": true
    },
    {
      "inputs": [
        {
          "internalType": "uint256",
          "name": "tokenId",
          "type": "uint256"
        }
      ],
      "name": "printNFTsforSale",
      "outputs": [
        {
          "internalType": "bool",
          "name": "",
          "type": "bool"
        }
      ],
      "stateMutability": "view",
      "type": "function",
      "constant": true
    },
    {
      "inputs": [
        {
          "internalType": "address",
          "name": "user",
          "type": "address"
        }
      ],
      "name": "printUserBalance",
      "outputs": [
        {
          "internalType": "uint256",
          "name": "",
          "type": "uint256"
        }
      ],
      "stateMutability": "view",
      "type": "function",
      "constant": true
    },
    {
      "inputs": [],
      "name": "prinAllNFTsAvailableforSale",
      "outputs": [
        {
          "internalType": "string[]",
          "name": "",
          "type": "string[]"
        }
      ],
      "stateMutability": "view",
      "type": "function",
      "constant": true
    }
  ],
  "bytecode": "0x60806040523480156200001157600080fd5b506040518060200160405280600081525062000033816200006260201b60201c565b5062000054620000486200007e60201b60201c565b6200008660201b60201c565b600160048190555062000260565b80600290805190602001906200007a9291906200014c565b5050565b600033905090565b6000600360009054906101000a900473ffffffffffffffffffffffffffffffffffffffff16905081600360006101000a81548173ffffffffffffffffffffffffffffffffffffffff021916908373ffffffffffffffffffffffffffffffffffffffff1602179055508173ffffffffffffffffffffffffffffffffffffffff168173ffffffffffffffffffffffffffffffffffffffff167f8be0079c531659141344cd1fd0a4f28419497f9722a3daafe3b4186f6b6457e060405160405180910390a35050565b8280546200015a906200022b565b90600052602060002090601f0160209004810192826200017e5760008555620001ca565b82601f106200019957805160ff1916838001178555620001ca565b82800160010185558215620001ca579182015b82811115620001c9578251825591602001919060010190620001ac565b5b509050620001d99190620001dd565b5090565b5b80821115620001f8576000816000905550600101620001de565b5090565b7f4e487b7100000000000000000000000000000000000000000000000000000000600052602260045260246000fd5b600060028204905060018216806200024457607f821691505b6020821081036200025a5762000259620001fc565b5b50919050565b6147cf80620002706000396000f3fe6080604052600436106101655760003560e01c8063715018a6116100d1578063b2733b391161008a578063e985e9c511610064578063e985e9c51461058b578063f242432a146105c8578063f2fde38b146105f1578063f8395b2e1461061a57610165565b8063b2733b39146104e8578063daaefcbf14610511578063e47ac9061461054e57610165565b8063715018a6146104025780638da5cb5b1461041957806394ab67fe146104445780639f8e9dbc1461046d578063a02e510714610496578063a22cb465146104bf57610165565b80632e378be3116101235780632e378be3146102ba5780632eb2c2d6146102f757806336d63191146103205780634e1273f41461034b578063535810c81461038857806366d029cc146103c557610165565b8062fdd58e1461016a57806301ffc9a7146101a75780630e89341c146101e45780630fe00cbc14610221578063150bde031461025e578063265aa6211461027a575b600080fd5b34801561017657600080fd5b50610191600480360381019061018c9190612ac4565b610657565b60405161019e9190612b13565b60405180910390f35b3480156101b357600080fd5b506101ce60048036038101906101c99190612b86565b61071f565b6040516101db9190612bce565b60405180910390f35b3480156101f057600080fd5b5061020b60048036038101906102069190612be9565b610801565b6040516102189190612caf565b60405180910390f35b34801561022d57600080fd5b5061024860048036038101906102439190612be9565b610895565b6040516102559190612ce0565b60405180910390f35b61027860048036038101906102739190612be9565b6108c8565b005b34801561028657600080fd5b506102a1600480360381019061029c9190612be9565b610b0a565b6040516102b19493929190612cfb565b60405180910390f35b3480156102c657600080fd5b506102e160048036038101906102dc9190612be9565b610c57565b6040516102ee9190612bce565b60405180910390f35b34801561030357600080fd5b5061031e60048036038101906103199190612f4b565b610c84565b005b34801561032c57600080fd5b50610335610d25565b6040516103429190613126565b60405180910390f35b34801561035757600080fd5b50610372600480360381019061036d919061320b565b610e1c565b60405161037f9190613341565b60405180910390f35b34801561039457600080fd5b506103af60048036038101906103aa9190613363565b610f35565b6040516103bc9190612b13565b60405180910390f35b3480156103d157600080fd5b506103ec60048036038101906103e79190612be9565b610f56565b6040516103f99190612caf565b60405180910390f35b34801561040e57600080fd5b5061041761109f565b005b34801561042557600080fd5b5061042e6110b3565b60405161043b9190612ce0565b60405180910390f35b34801561045057600080fd5b5061046b60048036038101906104669190612ac4565b6110dd565b005b34801561047957600080fd5b50610494600480360381019061048f9190613431565b6111f1565b005b3480156104a257600080fd5b506104bd60048036038101906104b89190612be9565b61136d565b005b3480156104cb57600080fd5b506104e660048036038101906104e19190613504565b611477565b005b3480156104f457600080fd5b5061050f600480360381019061050a9190613544565b61148d565b005b34801561051d57600080fd5b5061053860048036038101906105339190612be9565b6115b5565b6040516105459190612ce0565b60405180910390f35b34801561055a57600080fd5b5061057560048036038101906105709190612be9565b6115f2565b6040516105829190612caf565b60405180910390f35b34801561059757600080fd5b506105b260048036038101906105ad9190613584565b61173b565b6040516105bf9190612bce565b60405180910390f35b3480156105d457600080fd5b506105ef60048036038101906105ea91906135c4565b6117cf565b005b3480156105fd57600080fd5b5061061860048036038101906106139190613363565b611870565b005b34801561062657600080fd5b50610641600480360381019061063c9190612be9565b6118f3565b60405161064e9190612b13565b60405180910390f35b60008073ffffffffffffffffffffffffffffffffffffffff168373ffffffffffffffffffffffffffffffffffffffff16036106c7576040517f08c379a00000000000000000000000000000000000000000000000000000000081526004016106be906136cd565b60405180910390fd5b60008083815260200190815260200160002060008473ffffffffffffffffffffffffffffffffffffffff1673ffffffffffffffffffffffffffffffffffffffff16815260200190815260200160002054905092915050565b60007fd9b67a26000000000000000000000000000000000000000000000000000000007bffffffffffffffffffffffffffffffffffffffffffffffffffffffff1916827bffffffffffffffffffffffffffffffffffffffffffffffffffffffff191614806107ea57507f0e89341c000000000000000000000000000000000000000000000000000000007bffffffffffffffffffffffffffffffffffffffffffffffffffffffff1916827bffffffffffffffffffffffffffffffffffffffffffffffffffffffff1916145b806107fa57506107f982611913565b5b9050919050565b6060600280546108109061371c565b80601f016020809104026020016040519081016040528092919081815260200182805461083c9061371c565b80156108895780601f1061085e57610100808354040283529160200191610889565b820191906000526020600020905b81548152906001019060200180831161086c57829003601f168201915b50505050509050919050565b60076020528060005260406000206000915054906101000a900473ffffffffffffffffffffffffffffffffffffffff1681565b6108d061197d565b6006600082815260200190815260200160002060030160009054906101000a900460ff16610933576040517f08c379a000000000000000000000000000000000000000000000000000000000815260040161092a90613799565b60405180910390fd5b600660008281526020019081526020016000206002015434101561098c576040517f08c379a00000000000000000000000000000000000000000000000000000000081526004016109839061382b565b60405180910390fd5b60006007600083815260200190815260200160002060009054906101000a900473ffffffffffffffffffffffffffffffffffffffff1690503373ffffffffffffffffffffffffffffffffffffffff168173ffffffffffffffffffffffffffffffffffffffff1603610a32576040517f08c379a0000000000000000000000000000000000000000000000000000000008152600401610a2990613897565b60405180910390fd5b610a4f8133846001604051806020016040528060008152506117cf565b60006006600084815260200190815260200160002060030160006101000a81548160ff0219169083151502179055506000819050610aac348273ffffffffffffffffffffffffffffffffffffffff166119cc90919063ffffffff16565b7fad546cba5af920bc2c64678bbd69f3d8965ac26d1b82f7ebf6f098aaa833528283336006600087815260200190815260200160002060020154604051610af5939291906138b7565b60405180910390a15050610b07611ac0565b50565b6006602052806000526040600020600091509050806000018054610b2d9061371c565b80601f0160208091040260200160405190810160405280929190818152602001828054610b599061371c565b8015610ba65780601f10610b7b57610100808354040283529160200191610ba6565b820191906000526020600020905b815481529060010190602001808311610b8957829003601f168201915b505050505090806001018054610bbb9061371c565b80601f0160208091040260200160405190810160405280929190818152602001828054610be79061371c565b8015610c345780601f10610c0957610100808354040283529160200191610c34565b820191906000526020600020905b815481529060010190602001808311610c1757829003601f168201915b5050505050908060020154908060030160009054906101000a900460ff16905084565b60006006600083815260200190815260200160002060030160009054906101000a900460ff169050919050565b610c8c611aca565b73ffffffffffffffffffffffffffffffffffffffff168573ffffffffffffffffffffffffffffffffffffffff161480610cd25750610cd185610ccc611aca565b61173b565b5b610d11576040517f08c379a0000000000000000000000000000000000000000000000000000000008152600401610d0890613960565b60405180910390fd5b610d1e8585858585611ad2565b5050505050565b6060806000600190505b6005548111610e1457600660008281526020019081526020016000206000018054610d599061371c565b80601f0160208091040260200160405190810160405280929190818152602001828054610d859061371c565b8015610dd25780601f10610da757610100808354040283529160200191610dd2565b820191906000526020600020905b815481529060010190602001808311610db557829003601f168201915b505050505082600183610de591906139af565b81518110610df657610df56139e3565b5b60200260200101819052508080610e0c90613a12565b915050610d2f565b508091505090565b60608151835114610e62576040517f08c379a0000000000000000000000000000000000000000000000000000000008152600401610e5990613acc565b60405180910390fd5b6000835167ffffffffffffffff811115610e7f57610e7e612d53565b5b604051908082528060200260200182016040528015610ead5781602001602082028036833780820191505090505b50905060005b8451811015610f2a57610efa858281518110610ed257610ed16139e3565b5b6020026020010151858381518110610eed57610eec6139e3565b5b6020026020010151610657565b828281518110610f0d57610f0c6139e3565b5b60200260200101818152505080610f2390613a12565b9050610eb3565b508091505092915050565b60008173ffffffffffffffffffffffffffffffffffffffff16319050919050565b60603373ffffffffffffffffffffffffffffffffffffffff166007600084815260200190815260200160002060009054906101000a900473ffffffffffffffffffffffffffffffffffffffff1673ffffffffffffffffffffffffffffffffffffffff1614610ff9576040517f08c379a0000000000000000000000000000000000000000000000000000000008152600401610ff090613b5e565b60405180910390fd5b60066000838152602001908152602001600020600001805461101a9061371c565b80601f01602080910402602001604051908101604052809291908181526020018280546110469061371c565b80156110935780601f1061106857610100808354040283529160200191611093565b820191906000526020600020905b81548152906001019060200180831161107657829003601f168201915b50505050509050919050565b6110a7611df3565b6110b16000611e71565b565b6000600360009054906101000a900473ffffffffffffffffffffffffffffffffffffffff16905090565b6007600082815260200190815260200160002060009054906101000a900473ffffffffffffffffffffffffffffffffffffffff1673ffffffffffffffffffffffffffffffffffffffff163373ffffffffffffffffffffffffffffffffffffffff161461117e576040517f08c379a000000000000000000000000000000000000000000000000000000000815260040161117590613bf0565b60405180910390fd5b61119b3383836001604051806020016040528060008152506117cf565b816007600083815260200190815260200160002060006101000a81548173ffffffffffffffffffffffffffffffffffffffff021916908373ffffffffffffffffffffffffffffffffffffffff1602179055505050565b6001600560008282546112049190613c10565b925050819055506000600554905061122e3382600160405180602001604052806000815250611f37565b61123881836120e7565b6040518060800160405280858152602001848152602001600081526020016000151581525060066000838152602001908152602001600020600082015181600001908051906020019061128c929190612979565b5060208201518160010190805190602001906112a9929190612979565b506040820151816002015560608201518160030160006101000a81548160ff021916908315150217905550905050336007600083815260200190815260200160002060006101000a81548173ffffffffffffffffffffffffffffffffffffffff021916908373ffffffffffffffffffffffffffffffffffffffff1602179055507f6b0cae87e2e16430820036cd47dc8b923cb4df5556775feb0fadba52f6764e2e818585600060405161135f9493929190613cab565b60405180910390a150505050565b3373ffffffffffffffffffffffffffffffffffffffff166007600083815260200190815260200160002060009054906101000a900473ffffffffffffffffffffffffffffffffffffffff1673ffffffffffffffffffffffffffffffffffffffff161461140e576040517f08c379a000000000000000000000000000000000000000000000000000000000815260040161140590613d70565b60405180910390fd5b60006006600083815260200190815260200160002060030160006101000a81548160ff0219169083151502179055507fcd14eb7ebf273ed59a9fd1cf8651f3f40d9a04355b3511376f0d17b37ba224ff8160405161146c9190612b13565b60405180910390a150565b611489611482611aca565b8383612117565b5050565b3373ffffffffffffffffffffffffffffffffffffffff166007600084815260200190815260200160002060009054906101000a900473ffffffffffffffffffffffffffffffffffffffff1673ffffffffffffffffffffffffffffffffffffffff161461152e576040517f08c379a000000000000000000000000000000000000000000000000000000000815260040161152590613e02565b60405180910390fd5b80600660008481526020019081526020016000206002018190555060016006600084815260200190815260200160002060030160006101000a81548160ff0219169083151502179055507fa6cd73580a273eec6c1026108f6b63479fbaef5356dde4ff43e4b38dd187485f82826040516115a9929190613e22565b60405180910390a15050565b60006007600083815260200190815260200160002060009054906101000a900473ffffffffffffffffffffffffffffffffffffffff169050919050565b60603373ffffffffffffffffffffffffffffffffffffffff166007600084815260200190815260200160002060009054906101000a900473ffffffffffffffffffffffffffffffffffffffff1673ffffffffffffffffffffffffffffffffffffffff1614611695576040517f08c379a000000000000000000000000000000000000000000000000000000000815260040161168c90613b5e565b60405180910390fd5b6006600083815260200190815260200160002060010180546116b69061371c565b80601f01602080910402602001604051908101604052809291908181526020018280546116e29061371c565b801561172f5780601f106117045761010080835404028352916020019161172f565b820191906000526020600020905b81548152906001019060200180831161171257829003601f168201915b50505050509050919050565b6000600160008473ffffffffffffffffffffffffffffffffffffffff1673ffffffffffffffffffffffffffffffffffffffff16815260200190815260200160002060008373ffffffffffffffffffffffffffffffffffffffff1673ffffffffffffffffffffffffffffffffffffffff16815260200190815260200160002060009054906101000a900460ff16905092915050565b6117d7611aca565b73ffffffffffffffffffffffffffffffffffffffff168573ffffffffffffffffffffffffffffffffffffffff16148061181d575061181c85611817611aca565b61173b565b5b61185c576040517f08c379a000000000000000000000000000000000000000000000000000000000815260040161185390613960565b60405180910390fd5b6118698585858585612283565b5050505050565b611878611df3565b600073ffffffffffffffffffffffffffffffffffffffff168173ffffffffffffffffffffffffffffffffffffffff16036118e7576040517f08c379a00000000000000000000000000000000000000000000000000000000081526004016118de90613ebd565b60405180910390fd5b6118f081611e71565b50565b600060066000838152602001908152602001600020600201549050919050565b60007f01ffc9a7000000000000000000000000000000000000000000000000000000007bffffffffffffffffffffffffffffffffffffffffffffffffffffffff1916827bffffffffffffffffffffffffffffffffffffffffffffffffffffffff1916149050919050565b6002600454036119c2576040517f08c379a00000000000000000000000000000000000000000000000000000000081526004016119b990613f29565b60405180910390fd5b6002600481905550565b80471015611a0f576040517f08c379a0000000000000000000000000000000000000000000000000000000008152600401611a0690613f95565b60405180910390fd5b60008273ffffffffffffffffffffffffffffffffffffffff1682604051611a3590613fe6565b60006040518083038185875af1925050503d8060008114611a72576040519150601f19603f3d011682016040523d82523d6000602084013e611a77565b606091505b5050905080611abb576040517f08c379a0000000000000000000000000000000000000000000000000000000008152600401611ab29061406d565b60405180910390fd5b505050565b6001600481905550565b600033905090565b8151835114611b16576040517f08c379a0000000000000000000000000000000000000000000000000000000008152600401611b0d906140ff565b60405180910390fd5b600073ffffffffffffffffffffffffffffffffffffffff168473ffffffffffffffffffffffffffffffffffffffff1603611b85576040517f08c379a0000000000000000000000000000000000000000000000000000000008152600401611b7c90614191565b60405180910390fd5b6000611b8f611aca565b9050611b9f81878787878761251e565b60005b8451811015611d50576000858281518110611bc057611bbf6139e3565b5b602002602001015190506000858381518110611bdf57611bde6139e3565b5b60200260200101519050600080600084815260200190815260200160002060008b73ffffffffffffffffffffffffffffffffffffffff1673ffffffffffffffffffffffffffffffffffffffff16815260200190815260200160002054905081811015611c80576040517f08c379a0000000000000000000000000000000000000000000000000000000008152600401611c7790614223565b60405180910390fd5b81810360008085815260200190815260200160002060008c73ffffffffffffffffffffffffffffffffffffffff1673ffffffffffffffffffffffffffffffffffffffff168152602001908152602001600020819055508160008085815260200190815260200160002060008b73ffffffffffffffffffffffffffffffffffffffff1673ffffffffffffffffffffffffffffffffffffffff1681526020019081526020016000206000828254611d359190613c10565b9250508190555050505080611d4990613a12565b9050611ba2565b508473ffffffffffffffffffffffffffffffffffffffff168673ffffffffffffffffffffffffffffffffffffffff168273ffffffffffffffffffffffffffffffffffffffff167f4a39dc06d4c0dbc64b70af90fd698a233a518aa5d07e595d983b8c0526c8f7fb8787604051611dc7929190614243565b60405180910390a4611ddd818787878787612526565b611deb81878787878761252e565b505050505050565b611dfb611aca565b73ffffffffffffffffffffffffffffffffffffffff16611e196110b3565b73ffffffffffffffffffffffffffffffffffffffff1614611e6f576040517f08c379a0000000000000000000000000000000000000000000000000000000008152600401611e66906142c6565b60405180910390fd5b565b6000600360009054906101000a900473ffffffffffffffffffffffffffffffffffffffff16905081600360006101000a81548173ffffffffffffffffffffffffffffffffffffffff021916908373ffffffffffffffffffffffffffffffffffffffff1602179055508173ffffffffffffffffffffffffffffffffffffffff168173ffffffffffffffffffffffffffffffffffffffff167f8be0079c531659141344cd1fd0a4f28419497f9722a3daafe3b4186f6b6457e060405160405180910390a35050565b600073ffffffffffffffffffffffffffffffffffffffff168473ffffffffffffffffffffffffffffffffffffffff1603611fa6576040517f08c379a0000000000000000000000000000000000000000000000000000000008152600401611f9d90614358565b60405180910390fd5b6000611fb0611aca565b90506000611fbd85612705565b90506000611fca85612705565b9050611fdb8360008985858961251e565b8460008088815260200190815260200160002060008973ffffffffffffffffffffffffffffffffffffffff1673ffffffffffffffffffffffffffffffffffffffff168152602001908152602001600020600082825461203a9190613c10565b925050819055508673ffffffffffffffffffffffffffffffffffffffff16600073ffffffffffffffffffffffffffffffffffffffff168473ffffffffffffffffffffffffffffffffffffffff167fc3d58168c5ae7397731d063d5bbf3d657854427343f4c083240f7aacaa2d0f6289896040516120b8929190613e22565b60405180910390a46120cf83600089858589612526565b6120de8360008989898961277f565b50505050505050565b61211333836001846040516020016120ff91906143b4565b604051602081830303815290604052611f37565b5050565b8173ffffffffffffffffffffffffffffffffffffffff168373ffffffffffffffffffffffffffffffffffffffff1603612185576040517f08c379a000000000000000000000000000000000000000000000000000000000815260040161217c9061443d565b60405180910390fd5b80600160008573ffffffffffffffffffffffffffffffffffffffff1673ffffffffffffffffffffffffffffffffffffffff16815260200190815260200160002060008473ffffffffffffffffffffffffffffffffffffffff1673ffffffffffffffffffffffffffffffffffffffff16815260200190815260200160002060006101000a81548160ff0219169083151502179055508173ffffffffffffffffffffffffffffffffffffffff168373ffffffffffffffffffffffffffffffffffffffff167f17307eab39ab6107e8899845ad3d59bd9653f200f220920489ca2b5937696c31836040516122769190612bce565b60405180910390a3505050565b600073ffffffffffffffffffffffffffffffffffffffff168473ffffffffffffffffffffffffffffffffffffffff16036122f2576040517f08c379a00000000000000000000000000000000000000000000000000000000081526004016122e990614191565b60405180910390fd5b60006122fc611aca565b9050600061230985612705565b9050600061231685612705565b905061232683898985858961251e565b600080600088815260200190815260200160002060008a73ffffffffffffffffffffffffffffffffffffffff1673ffffffffffffffffffffffffffffffffffffffff168152602001908152602001600020549050858110156123bd576040517f08c379a00000000000000000000000000000000000000000000000000000000081526004016123b490614223565b60405180910390fd5b85810360008089815260200190815260200160002060008b73ffffffffffffffffffffffffffffffffffffffff1673ffffffffffffffffffffffffffffffffffffffff168152602001908152602001600020819055508560008089815260200190815260200160002060008a73ffffffffffffffffffffffffffffffffffffffff1673ffffffffffffffffffffffffffffffffffffffff16815260200190815260200160002060008282546124729190613c10565b925050819055508773ffffffffffffffffffffffffffffffffffffffff168973ffffffffffffffffffffffffffffffffffffffff168573ffffffffffffffffffffffffffffffffffffffff167fc3d58168c5ae7397731d063d5bbf3d657854427343f4c083240f7aacaa2d0f628a8a6040516124ef929190613e22565b60405180910390a4612505848a8a86868a612526565b612513848a8a8a8a8a61277f565b505050505050505050565b505050505050565b505050505050565b61254d8473ffffffffffffffffffffffffffffffffffffffff16612956565b156126fd578373ffffffffffffffffffffffffffffffffffffffff1663bc197c8187878686866040518663ffffffff1660e01b81526004016125939594939291906144b2565b6020604051808303816000875af19250505080156125cf57506040513d601f19601f820116820180604052508101906125cc919061452f565b60015b612674576125db614569565b806308c379a00361263757506125ef61458b565b806125fa5750612639565b806040517f08c379a000000000000000000000000000000000000000000000000000000000815260040161262e9190612caf565b60405180910390fd5b505b6040517f08c379a000000000000000000000000000000000000000000000000000000000815260040161266b9061468d565b60405180910390fd5b63bc197c8160e01b7bffffffffffffffffffffffffffffffffffffffffffffffffffffffff1916817bffffffffffffffffffffffffffffffffffffffffffffffffffffffff1916146126fb576040517f08c379a00000000000000000000000000000000000000000000000000000000081526004016126f29061471f565b60405180910390fd5b505b505050505050565b60606000600167ffffffffffffffff81111561272457612723612d53565b5b6040519080825280602002602001820160405280156127525781602001602082028036833780820191505090505b509050828160008151811061276a576127696139e3565b5b60200260200101818152505080915050919050565b61279e8473ffffffffffffffffffffffffffffffffffffffff16612956565b1561294e578373ffffffffffffffffffffffffffffffffffffffff1663f23a6e6187878686866040518663ffffffff1660e01b81526004016127e495949392919061473f565b6020604051808303816000875af192505050801561282057506040513d601f19601f8201168201806040525081019061281d919061452f565b60015b6128c55761282c614569565b806308c379a003612888575061284061458b565b8061284b575061288a565b806040517f08c379a000000000000000000000000000000000000000000000000000000000815260040161287f9190612caf565b60405180910390fd5b505b6040517f08c379a00000000000000000000000000000000000000000000000000000000081526004016128bc9061468d565b60405180910390fd5b63f23a6e6160e01b7bffffffffffffffffffffffffffffffffffffffffffffffffffffffff1916817bffffffffffffffffffffffffffffffffffffffffffffffffffffffff19161461294c576040517f08c379a00000000000000000000000000000000000000000000000000000000081526004016129439061471f565b60405180910390fd5b505b505050505050565b6000808273ffffffffffffffffffffffffffffffffffffffff163b119050919050565b8280546129859061371c565b90600052602060002090601f0160209004810192826129a757600085556129ee565b82601f106129c057805160ff19168380011785556129ee565b828001600101855582156129ee579182015b828111156129ed5782518255916020019190600101906129d2565b5b5090506129fb91906129ff565b5090565b5b80821115612a18576000816000905550600101612a00565b5090565b6000604051905090565b600080fd5b600080fd5b600073ffffffffffffffffffffffffffffffffffffffff82169050919050565b6000612a5b82612a30565b9050919050565b612a6b81612a50565b8114612a7657600080fd5b50565b600081359050612a8881612a62565b92915050565b6000819050919050565b612aa181612a8e565b8114612aac57600080fd5b50565b600081359050612abe81612a98565b92915050565b60008060408385031215612adb57612ada612a26565b5b6000612ae985828601612a79565b9250506020612afa85828601612aaf565b9150509250929050565b612b0d81612a8e565b82525050565b6000602082019050612b286000830184612b04565b92915050565b60007fffffffff0000000000000000000000000000000000000000000000000000000082169050919050565b612b6381612b2e565b8114612b6e57600080fd5b50565b600081359050612b8081612b5a565b92915050565b600060208284031215612b9c57612b9b612a26565b5b6000612baa84828501612b71565b91505092915050565b60008115159050919050565b612bc881612bb3565b82525050565b6000602082019050612be36000830184612bbf565b92915050565b600060208284031215612bff57612bfe612a26565b5b6000612c0d84828501612aaf565b91505092915050565b600081519050919050565b600082825260208201905092915050565b60005b83811015612c50578082015181840152602081019050612c35565b83811115612c5f576000848401525b50505050565b6000601f19601f8301169050919050565b6000612c8182612c16565b612c8b8185612c21565b9350612c9b818560208601612c32565b612ca481612c65565b840191505092915050565b60006020820190508181036000830152612cc98184612c76565b905092915050565b612cda81612a50565b82525050565b6000602082019050612cf56000830184612cd1565b92915050565b60006080820190508181036000830152612d158187612c76565b90508181036020830152612d298186612c76565b9050612d386040830185612b04565b612d456060830184612bbf565b95945050505050565b600080fd5b7f4e487b7100000000000000000000000000000000000000000000000000000000600052604160045260246000fd5b612d8b82612c65565b810181811067ffffffffffffffff82111715612daa57612da9612d53565b5b80604052505050565b6000612dbd612a1c565b9050612dc98282612d82565b919050565b600067ffffffffffffffff821115612de957612de8612d53565b5b602082029050602081019050919050565b600080fd5b6000612e12612e0d84612dce565b612db3565b90508083825260208201905060208402830185811115612e3557612e34612dfa565b5b835b81811015612e5e5780612e4a8882612aaf565b845260208401935050602081019050612e37565b5050509392505050565b600082601f830112612e7d57612e7c612d4e565b5b8135612e8d848260208601612dff565b91505092915050565b600080fd5b600067ffffffffffffffff821115612eb657612eb5612d53565b5b612ebf82612c65565b9050602081019050919050565b82818337600083830152505050565b6000612eee612ee984612e9b565b612db3565b905082815260208101848484011115612f0a57612f09612e96565b5b612f15848285612ecc565b509392505050565b600082601f830112612f3257612f31612d4e565b5b8135612f42848260208601612edb565b91505092915050565b600080600080600060a08688031215612f6757612f66612a26565b5b6000612f7588828901612a79565b9550506020612f8688828901612a79565b945050604086013567ffffffffffffffff811115612fa757612fa6612a2b565b5b612fb388828901612e68565b935050606086013567ffffffffffffffff811115612fd457612fd3612a2b565b5b612fe088828901612e68565b925050608086013567ffffffffffffffff81111561300157613000612a2b565b5b61300d88828901612f1d565b9150509295509295909350565b600081519050919050565b600082825260208201905092915050565b6000819050602082019050919050565b600082825260208201905092915050565b600061306282612c16565b61306c8185613046565b935061307c818560208601612c32565b61308581612c65565b840191505092915050565b600061309c8383613057565b905092915050565b6000602082019050919050565b60006130bc8261301a565b6130c68185613025565b9350836020820285016130d885613036565b8060005b8581101561311457848403895281516130f58582613090565b9450613100836130a4565b925060208a019950506001810190506130dc565b50829750879550505050505092915050565b6000602082019050818103600083015261314081846130b1565b905092915050565b600067ffffffffffffffff82111561316357613162612d53565b5b602082029050602081019050919050565b600061318761318284613148565b612db3565b905080838252602082019050602084028301858111156131aa576131a9612dfa565b5b835b818110156131d357806131bf8882612a79565b8452602084019350506020810190506131ac565b5050509392505050565b600082601f8301126131f2576131f1612d4e565b5b8135613202848260208601613174565b91505092915050565b6000806040838503121561322257613221612a26565b5b600083013567ffffffffffffffff8111156132405761323f612a2b565b5b61324c858286016131dd565b925050602083013567ffffffffffffffff81111561326d5761326c612a2b565b5b61327985828601612e68565b9150509250929050565b600081519050919050565b600082825260208201905092915050565b6000819050602082019050919050565b6132b881612a8e565b82525050565b60006132ca83836132af565b60208301905092915050565b6000602082019050919050565b60006132ee82613283565b6132f8818561328e565b93506133038361329f565b8060005b8381101561333457815161331b88826132be565b9750613326836132d6565b925050600181019050613307565b5085935050505092915050565b6000602082019050818103600083015261335b81846132e3565b905092915050565b60006020828403121561337957613378612a26565b5b600061338784828501612a79565b91505092915050565b600067ffffffffffffffff8211156133ab576133aa612d53565b5b6133b482612c65565b9050602081019050919050565b60006133d46133cf84613390565b612db3565b9050828152602081018484840111156133f0576133ef612e96565b5b6133fb848285612ecc565b509392505050565b600082601f83011261341857613417612d4e565b5b81356134288482602086016133c1565b91505092915050565b60008060006060848603121561344a57613449612a26565b5b600084013567ffffffffffffffff81111561346857613467612a2b565b5b61347486828701613403565b935050602084013567ffffffffffffffff81111561349557613494612a2b565b5b6134a186828701613403565b925050604084013567ffffffffffffffff8111156134c2576134c1612a2b565b5b6134ce86828701613403565b9150509250925092565b6134e181612bb3565b81146134ec57600080fd5b50565b6000813590506134fe816134d8565b92915050565b6000806040838503121561351b5761351a612a26565b5b600061352985828601612a79565b925050602061353a858286016134ef565b9150509250929050565b6000806040838503121561355b5761355a612a26565b5b600061356985828601612aaf565b925050602061357a85828601612aaf565b9150509250929050565b6000806040838503121561359b5761359a612a26565b5b60006135a985828601612a79565b92505060206135ba85828601612a79565b9150509250929050565b600080600080600060a086880312156135e0576135df612a26565b5b60006135ee88828901612a79565b95505060206135ff88828901612a79565b945050604061361088828901612aaf565b935050606061362188828901612aaf565b925050608086013567ffffffffffffffff81111561364257613641612a2b565b5b61364e88828901612f1d565b9150509295509295909350565b7f455243313135353a2061646472657373207a65726f206973206e6f742061207660008201527f616c6964206f776e657200000000000000000000000000000000000000000000602082015250565b60006136b7602a83612c21565b91506136c28261365b565b604082019050919050565b600060208201905081810360008301526136e6816136aa565b9050919050565b7f4e487b7100000000000000000000000000000000000000000000000000000000600052602260045260246000fd5b6000600282049050600182168061373457607f821691505b602082108103613747576137466136ed565b5b50919050565b7f54686973204e4654206973206e6f7420666f722073616c650000000000000000600082015250565b6000613783601883612c21565b915061378e8261374d565b602082019050919050565b600060208201905081810360008301526137b281613776565b9050919050565b7f496e73756666696369656e742066756e647320746f207075726368617365207460008201527f686973204e465400000000000000000000000000000000000000000000000000602082015250565b6000613815602783612c21565b9150613820826137b9565b604082019050919050565b6000602082019050818103600083015261384481613808565b9050919050565b7f596f7520616c7265616479206f776e2074686973204e46542e00000000000000600082015250565b6000613881601983612c21565b915061388c8261384b565b602082019050919050565b600060208201905081810360008301526138b081613874565b9050919050565b60006060820190506138cc6000830186612b04565b6138d96020830185612cd1565b6138e66040830184612b04565b949350505050565b7f455243313135353a2063616c6c6572206973206e6f7420746f6b656e206f776e60008201527f6572206f7220617070726f766564000000000000000000000000000000000000602082015250565b600061394a602e83612c21565b9150613955826138ee565b604082019050919050565b600060208201905081810360008301526139798161393d565b9050919050565b7f4e487b7100000000000000000000000000000000000000000000000000000000600052601160045260246000fd5b60006139ba82612a8e565b91506139c583612a8e565b9250828210156139d8576139d7613980565b5b828203905092915050565b7f4e487b7100000000000000000000000000000000000000000000000000000000600052603260045260246000fd5b6000613a1d82612a8e565b91507fffffffffffffffffffffffffffffffffffffffffffffffffffffffffffffffff8203613a4f57613a4e613980565b5b600182019050919050565b7f455243313135353a206163636f756e747320616e6420696473206c656e67746860008201527f206d69736d617463680000000000000000000000000000000000000000000000602082015250565b6000613ab6602983612c21565b9150613ac182613a5a565b604082019050919050565b60006020820190508181036000830152613ae581613aa9565b9050919050565b7f4f6e6c79207468652063726561746f722063616e207265616420746865204e4660008201527f5473000000000000000000000000000000000000000000000000000000000000602082015250565b6000613b48602283612c21565b9150613b5382613aec565b604082019050919050565b60006020820190508181036000830152613b7781613b3b565b9050919050565b7f4f6e6c79207468652063726561746f722063616e207472616e7366657220746860008201527f65204e46542e0000000000000000000000000000000000000000000000000000602082015250565b6000613bda602683612c21565b9150613be582613b7e565b604082019050919050565b60006020820190508181036000830152613c0981613bcd565b9050919050565b6000613c1b82612a8e565b9150613c2683612a8e565b9250827fffffffffffffffffffffffffffffffffffffffffffffffffffffffffffffffff03821115613c5b57613c5a613980565b5b828201905092915050565b6000819050919050565b6000819050919050565b6000613c95613c90613c8b84613c66565b613c70565b612a8e565b9050919050565b613ca581613c7a565b82525050565b6000608082019050613cc06000830187612b04565b8181036020830152613cd28186612c76565b90508181036040830152613ce68185612c76565b9050613cf56060830184613c9c565b95945050505050565b7f4f6e6c79207468652063726561746f722063616e2072656d6f7665207468652060008201527f4e46542066726f6d2073616c652e000000000000000000000000000000000000602082015250565b6000613d5a602e83612c21565b9150613d6582613cfe565b604082019050919050565b60006020820190508181036000830152613d8981613d4d565b9050919050565b7f4f6e6c79207468652063726561746f722063616e206c69737420746865204e4660008201527f5420666f722073616c652e000000000000000000000000000000000000000000602082015250565b6000613dec602b83612c21565b9150613df782613d90565b604082019050919050565b60006020820190508181036000830152613e1b81613ddf565b9050919050565b6000604082019050613e376000830185612b04565b613e446020830184612b04565b9392505050565b7f4f776e61626c653a206e6577206f776e657220697320746865207a65726f206160008201527f6464726573730000000000000000000000000000000000000000000000000000602082015250565b6000613ea7602683612c21565b9150613eb282613e4b565b604082019050919050565b60006020820190508181036000830152613ed681613e9a565b9050919050565b7f5265656e7472616e637947756172643a207265656e7472616e742063616c6c00600082015250565b6000613f13601f83612c21565b9150613f1e82613edd565b602082019050919050565b60006020820190508181036000830152613f4281613f06565b9050919050565b7f416464726573733a20696e73756666696369656e742062616c616e6365000000600082015250565b6000613f7f601d83612c21565b9150613f8a82613f49565b602082019050919050565b60006020820190508181036000830152613fae81613f72565b9050919050565b600081905092915050565b50565b6000613fd0600083613fb5565b9150613fdb82613fc0565b600082019050919050565b6000613ff182613fc3565b9150819050919050565b7f416464726573733a20756e61626c6520746f2073656e642076616c75652c207260008201527f6563697069656e74206d61792068617665207265766572746564000000000000602082015250565b6000614057603a83612c21565b915061406282613ffb565b604082019050919050565b600060208201905081810360008301526140868161404a565b9050919050565b7f455243313135353a2069647320616e6420616d6f756e7473206c656e6774682060008201527f6d69736d61746368000000000000000000000000000000000000000000000000602082015250565b60006140e9602883612c21565b91506140f48261408d565b604082019050919050565b60006020820190508181036000830152614118816140dc565b9050919050565b7f455243313135353a207472616e7366657220746f20746865207a65726f20616460008201527f6472657373000000000000000000000000000000000000000000000000000000602082015250565b600061417b602583612c21565b91506141868261411f565b604082019050919050565b600060208201905081810360008301526141aa8161416e565b9050919050565b7f455243313135353a20696e73756666696369656e742062616c616e636520666f60008201527f72207472616e7366657200000000000000000000000000000000000000000000602082015250565b600061420d602a83612c21565b9150614218826141b1565b604082019050919050565b6000602082019050818103600083015261423c81614200565b9050919050565b6000604082019050818103600083015261425d81856132e3565b9050818103602083015261427181846132e3565b90509392505050565b7f4f776e61626c653a2063616c6c6572206973206e6f7420746865206f776e6572600082015250565b60006142b0602083612c21565b91506142bb8261427a565b602082019050919050565b600060208201905081810360008301526142df816142a3565b9050919050565b7f455243313135353a206d696e7420746f20746865207a65726f2061646472657360008201527f7300000000000000000000000000000000000000000000000000000000000000602082015250565b6000614342602183612c21565b915061434d826142e6565b604082019050919050565b6000602082019050818103600083015261437181614335565b9050919050565b600081905092915050565b600061438e82612c16565b6143988185614378565b93506143a8818560208601612c32565b80840191505092915050565b60006143c08284614383565b915081905092915050565b7f455243313135353a2073657474696e6720617070726f76616c2073746174757360008201527f20666f722073656c660000000000000000000000000000000000000000000000602082015250565b6000614427602983612c21565b9150614432826143cb565b604082019050919050565b600060208201905081810360008301526144568161441a565b9050919050565b600081519050919050565b600082825260208201905092915050565b60006144848261445d565b61448e8185614468565b935061449e818560208601612c32565b6144a781612c65565b840191505092915050565b600060a0820190506144c76000830188612cd1565b6144d46020830187612cd1565b81810360408301526144e681866132e3565b905081810360608301526144fa81856132e3565b9050818103608083015261450e8184614479565b90509695505050505050565b60008151905061452981612b5a565b92915050565b60006020828403121561454557614544612a26565b5b60006145538482850161451a565b91505092915050565b60008160e01c9050919050565b600060033d11156145885760046000803e61458560005161455c565b90505b90565b600060443d106146185761459d612a1c565b60043d036004823e80513d602482011167ffffffffffffffff821117156145c5575050614618565b808201805167ffffffffffffffff8111156145e35750505050614618565b80602083010160043d038501811115614600575050505050614618565b61460f82602001850186612d82565b82955050505050505b90565b7f455243313135353a207472616e7366657220746f206e6f6e2d4552433131353560008201527f526563656976657220696d706c656d656e746572000000000000000000000000602082015250565b6000614677603483612c21565b91506146828261461b565b604082019050919050565b600060208201905081810360008301526146a68161466a565b9050919050565b7f455243313135353a204552433131353552656365697665722072656a6563746560008201527f6420746f6b656e73000000000000000000000000000000000000000000000000602082015250565b6000614709602883612c21565b9150614714826146ad565b604082019050919050565b60006020820190508181036000830152614738816146fc565b9050919050565b600060a0820190506147546000830188612cd1565b6147616020830187612cd1565b61476e6040830186612b04565b61477b6060830185612b04565b818103608083015261478d8184614479565b9050969550505050505056fea26469706673582212206260f29a4624f22163826171f5c14495ae655b29ca3e91628a4e4a328ed1345864736f6c634300080d0033",
  "immutableReferences": {},
  "source": "// SPDX-License-Identifier: MIT\npragma solidity ^0.8.13;\n\nimport \"@openzeppelin/contracts/token/ERC1155/ERC1155.sol\";\nimport \"@openzeppelin/contracts/access/Ownable.sol\";\nimport \"@openzeppelin/contracts/security/ReentrancyGuard.sol\";\nimport \"@openzeppelin/contracts/utils/Address.sol\";\nimport \"@openzeppelin/contracts/utils/Strings.sol\";\n\ncontract NFTMarketplace is ERC1155, Ownable, ReentrancyGuard {\n    using Address for address payable;\n\n    uint256 private _tokenIds;\n\n    struct NFT {\n        string name;\n        string description;\n        uint256 price;\n        bool forSale;\n    }\n\n    mapping(uint256 => NFT) public nfts;\n    mapping(uint256 => address) public nftCreators;\n\n    event NFTCreated(uint256 tokenId, string name, string description, uint256 price);\n    event NFTListed(uint256 tokenId, uint256 price);\n    event NFTUnlisted(uint256 tokenId);\n    event NFTPurchased(uint256 tokenId, address buyer, uint256 price);\n\n    //\"https://ipfs.io/ipfs/bafybeiadjwxddlh4poqqa5i64hxypss4rbn6bxwxddbi5eh7tbyx3plo54/{id}.json\"\n    constructor() ERC1155(\"\") {\n        // _mint(msg.sender, 1, 1, \"\");\n        // _mint(msg.sender, 2, 1, \"\");\n    }\n\n    function createNFT(string memory name, string memory description, string memory tokenURI) public {\n        _tokenIds += 1;\n        uint256 tokenId = _tokenIds;\n\n        _mint(msg.sender, tokenId, 1, \"\");\n        _setURI(tokenId, tokenURI);\n\n        nfts[tokenId] = NFT(name, description, 0, false);\n        nftCreators[tokenId] = msg.sender;\n\n        emit NFTCreated(tokenId, name, description, 0);\n    }\n\n    function transferNFT(address to, uint256 tokenId) public {\n        require(msg.sender == nftCreators[tokenId], \"Only the creator can transfer the NFT.\");\n        safeTransferFrom(msg.sender, to, tokenId, 1, \"\");\n        nftCreators[tokenId] = to;\n    }\n\n    function listNFTForSale(uint256 tokenId, uint256 price) public {\n        require(nftCreators[tokenId] == msg.sender, \"Only the creator can list the NFT for sale.\");\n\n        nfts[tokenId].price = price;\n        nfts[tokenId].forSale = true;\n\n        emit NFTListed(tokenId, price);\n    }\n\n    function removeNFTFromSale(uint256 tokenId) public {\n        require(nftCreators[tokenId] == msg.sender, \"Only the creator can remove the NFT from sale.\");\n\n        nfts[tokenId].forSale = false;\n\n        emit NFTUnlisted(tokenId);\n    }\n\n    function purchaseNFT(uint256 tokenId) public payable nonReentrant {\n        require(nfts[tokenId].forSale, \"This NFT is not for sale\");\n        require(msg.value >= nfts[tokenId].price, \"Insufficient funds to purchase this NFT\");\n\n        address seller = nftCreators[tokenId];\n        require(seller != msg.sender, \"You already own this NFT.\");\n\n        safeTransferFrom(seller, msg.sender, tokenId, 1, \"\");\n\n        nfts[tokenId].forSale = false;\n\n        address payable buyer = payable(seller);\n        buyer.sendValue(msg.value);\n\n        emit NFTPurchased(tokenId, msg.sender, nfts[tokenId].price);\n    }\n\n    function _setURI(uint256 tokenId, string memory tokenURI) internal {\n        _mint(msg.sender, tokenId, 1, abi.encodePacked(tokenURI));\n    }\n\n    // function uri(uint256 tokenId) override public pure returns (string memory) {\n    //     return string(\n    //         abi.encodePacked(\n    //             \"https://ipfs.io/ipfs/bafybeiadjwxddlh4poqqa5i64hxypss4rbn6bxwxddbi5eh7tbyx3plo54/\",\n    //             Strings.toString(tokenId),\".json\"\n    //         )\n    //     );\n    // }\n\n    function printNFTsName(uint256 tokenId) view public returns (string memory){\n        require(nftCreators[tokenId] == msg.sender, \"Only the creator can read the NFTs\");\n\n        return nfts[tokenId].name;\n    }\n\n    function printNFTsDescription(uint256 tokenId) view public returns (string memory){\n        require(nftCreators[tokenId] == msg.sender, \"Only the creator can read the NFTs\");\n\n        return nfts[tokenId].description;\n    }\n\n    function printNFTsOwner(uint256 tokenId) view public returns (address){\n\n        return nftCreators[tokenId];\n    }\n\n    function printNFTsPrice(uint256 tokenId) view public returns (uint256){\n\n        return nfts[tokenId].price;\n    }\n\n    function printNFTsforSale(uint256 tokenId) view public returns (bool){\n\n        return nfts[tokenId].forSale;\n    }\n\n    function printUserBalance(address user) view public returns (uint256){\n\n        return user.balance;\n    }\n\n    function prinAllNFTsAvailableforSale() view public returns (string[] memory){\n        string[] memory result;\n        for(uint i = 1; i <= _tokenIds; i++){\n            result[i-1] = nfts[i].name;\n        }\n        return result;  \n    }\n\n}\n",
  "sourcePath": "/home/bridges/eth_sample/contracts/NFTContract.sol",
  "compiler": {
    "name": "solc",
    "version": "0.8.13+commit.abaa5c0e.Emscripten.clang"
  },
  "schemaVersion": "3.4.13",
  "updatedAt": "2023-05-04T10:34:28.946Z",
  "networkType": "ethereum",
  "devdoc": {
    "kind": "dev",
    "methods": {
      "balanceOf(address,uint256)": {
        "details": "See {IERC1155-balanceOf}. Requirements: - `account` cannot be the zero address."
      },
      "balanceOfBatch(address[],uint256[])": {
        "details": "See {IERC1155-balanceOfBatch}. Requirements: - `accounts` and `ids` must have the same length."
      },
      "isApprovedForAll(address,address)": {
        "details": "See {IERC1155-isApprovedForAll}."
      },
      "owner()": {
        "details": "Returns the address of the current owner."
      },
      "renounceOwnership()": {
        "details": "Leaves the contract without owner. It will not be possible to call `onlyOwner` functions anymore. Can only be called by the current owner. NOTE: Renouncing ownership will leave the contract without an owner, thereby removing any functionality that is only available to the owner."
      },
      "safeBatchTransferFrom(address,address,uint256[],uint256[],bytes)": {
        "details": "See {IERC1155-safeBatchTransferFrom}."
      },
      "safeTransferFrom(address,address,uint256,uint256,bytes)": {
        "details": "See {IERC1155-safeTransferFrom}."
      },
      "setApprovalForAll(address,bool)": {
        "details": "See {IERC1155-setApprovalForAll}."
      },
      "supportsInterface(bytes4)": {
        "details": "See {IERC165-supportsInterface}."
      },
      "transferOwnership(address)": {
        "details": "Transfers ownership of the contract to a new account (`newOwner`). Can only be called by the current owner."
      },
      "uri(uint256)": {
        "details": "See {IERC1155MetadataURI-uri}. This implementation returns the same URI for *all* token types. It relies on the token type ID substitution mechanism https://eips.ethereum.org/EIPS/eip-1155#metadata[defined in the EIP]. Clients calling this function must replace the `\\{id\\}` substring with the actual token type ID."
      }
    },
    "version": 1
  },
  "userdoc": {
    "kind": "user",
    "methods": {},
    "version": 1
  }
}